{
  "address": "0x73E5099ddb1A0e2c95a71D7623f6DFe74D0ceA34",
  "abi": [
    {
      "inputs": [],
      "stateMutability": "nonpayable",
      "type": "constructor"
    },
    {
      "anonymous": false,
      "inputs": [
        {
          "indexed": true,
          "internalType": "address",
          "name": "owner",
          "type": "address"
        },
        {
          "indexed": true,
          "internalType": "address",
          "name": "approved",
          "type": "address"
        },
        {
          "indexed": true,
          "internalType": "uint256",
          "name": "tokenId",
          "type": "uint256"
        }
      ],
      "name": "Approval",
      "type": "event"
    },
    {
      "anonymous": false,
      "inputs": [
        {
          "indexed": true,
          "internalType": "address",
          "name": "owner",
          "type": "address"
        },
        {
          "indexed": true,
          "internalType": "address",
          "name": "operator",
          "type": "address"
        },
        {
          "indexed": false,
          "internalType": "bool",
          "name": "approved",
          "type": "bool"
        }
      ],
      "name": "ApprovalForAll",
      "type": "event"
    },
    {
      "anonymous": false,
      "inputs": [
        {
          "indexed": true,
          "internalType": "address",
          "name": "previousOwner",
          "type": "address"
        },
        {
          "indexed": true,
          "internalType": "address",
          "name": "newOwner",
          "type": "address"
        }
      ],
      "name": "OwnershipTransferred",
      "type": "event"
    },
    {
      "anonymous": false,
      "inputs": [
        {
          "indexed": true,
          "internalType": "address",
          "name": "from",
          "type": "address"
        },
        {
          "indexed": true,
          "internalType": "address",
          "name": "to",
          "type": "address"
        },
        {
          "indexed": true,
          "internalType": "uint256",
          "name": "tokenId",
          "type": "uint256"
        }
      ],
      "name": "Transfer",
      "type": "event"
    },
    {
      "inputs": [],
      "name": "abilityContract",
      "outputs": [
        {
          "internalType": "address",
          "name": "",
          "type": "address"
        }
      ],
      "stateMutability": "view",
      "type": "function"
    },
    {
      "inputs": [
        {
          "internalType": "address",
          "name": "to",
          "type": "address"
        },
        {
          "internalType": "uint256",
          "name": "tokenId",
          "type": "uint256"
        }
      ],
      "name": "approve",
      "outputs": [],
      "stateMutability": "nonpayable",
      "type": "function"
    },
    {
      "inputs": [
        {
          "internalType": "address",
          "name": "owner",
          "type": "address"
        }
      ],
      "name": "balanceOf",
      "outputs": [
        {
          "internalType": "uint256",
          "name": "",
          "type": "uint256"
        }
      ],
      "stateMutability": "view",
      "type": "function"
    },
    {
      "inputs": [],
      "name": "breachCap",
      "outputs": [
        {
          "internalType": "uint8",
          "name": "",
          "type": "uint8"
        }
      ],
      "stateMutability": "view",
      "type": "function"
    },
    {
      "inputs": [],
      "name": "carryCap",
      "outputs": [
        {
          "internalType": "uint8",
          "name": "",
          "type": "uint8"
        }
      ],
      "stateMutability": "view",
      "type": "function"
    },
    {
      "inputs": [
        {
          "internalType": "uint256",
          "name": "",
          "type": "uint256"
        }
      ],
      "name": "characterToOwner",
      "outputs": [
        {
          "internalType": "address",
          "name": "",
          "type": "address"
        }
      ],
      "stateMutability": "view",
      "type": "function"
    },
    {
      "inputs": [
        {
          "internalType": "uint256",
          "name": "",
          "type": "uint256"
        }
      ],
      "name": "characters",
      "outputs": [
        {
          "internalType": "uint8",
          "name": "health",
          "type": "uint8"
        },
        {
          "internalType": "uint8",
          "name": "carry",
          "type": "uint8"
        },
        {
          "internalType": "uint8",
          "name": "defense",
          "type": "uint8"
        },
        {
          "internalType": "uint8",
          "name": "hack",
          "type": "uint8"
        },
        {
          "internalType": "uint8",
          "name": "breach",
          "type": "uint8"
        },
        {
          "internalType": "uint8",
          "name": "shoot",
          "type": "uint8"
        },
        {
          "internalType": "uint8",
          "name": "melee",
          "type": "uint8"
        },
        {
          "internalType": "uint8",
          "name": "cloneNumber",
          "type": "uint8"
        },
        {
          "internalType": "uint8",
          "name": "maxClones",
          "type": "uint8"
        },
        {
          "internalType": "uint8",
          "name": "ability",
          "type": "uint8"
        },
        {
          "internalType": "uint8",
          "name": "flaw",
          "type": "uint8"
        },
        {
          "internalType": "bool",
          "name": "dead",
          "type": "bool"
        }
      ],
      "stateMutability": "view",
      "type": "function"
    },
    {
      "inputs": [
        {
          "internalType": "uint256",
          "name": "",
          "type": "uint256"
        }
      ],
      "name": "cloneTankToOwner",
      "outputs": [
        {
          "internalType": "address",
          "name": "",
          "type": "address"
        }
      ],
      "stateMutability": "view",
      "type": "function"
    },
    {
      "inputs": [
        {
          "internalType": "uint256",
          "name": "",
          "type": "uint256"
        }
      ],
      "name": "cloneTanks",
      "outputs": [
        {
          "internalType": "bytes32",
          "name": "hashBase",
          "type": "bytes32"
        },
        {
          "internalType": "uint256",
          "name": "decantBlockNumber",
          "type": "uint256"
        },
        {
          "internalType": "bool",
          "name": "decanted",
          "type": "bool"
        }
      ],
      "stateMutability": "view",
      "type": "function"
    },
    {
      "inputs": [],
      "name": "decantMax",
      "outputs": [
        {
          "internalType": "uint8",
          "name": "",
          "type": "uint8"
        }
      ],
      "stateMutability": "view",
      "type": "function"
    },
    {
      "inputs": [],
      "name": "decantMin",
      "outputs": [
        {
          "internalType": "uint8",
          "name": "",
          "type": "uint8"
        }
      ],
      "stateMutability": "view",
      "type": "function"
    },
    {
      "inputs": [
        {
          "internalType": "uint256",
          "name": "_id",
          "type": "uint256"
        }
      ],
      "name": "decantNewClone",
      "outputs": [],
      "stateMutability": "nonpayable",
      "type": "function"
    },
    {
      "inputs": [],
      "name": "defenseCap",
      "outputs": [
        {
          "internalType": "uint8",
          "name": "",
          "type": "uint8"
        }
      ],
      "stateMutability": "view",
      "type": "function"
    },
    {
      "inputs": [
        {
          "internalType": "uint256",
          "name": "tokenId",
          "type": "uint256"
        }
      ],
      "name": "getApproved",
      "outputs": [
        {
          "internalType": "address",
          "name": "",
          "type": "address"
        }
      ],
      "stateMutability": "view",
      "type": "function"
    },
    {
      "inputs": [],
      "name": "hackCap",
      "outputs": [
        {
          "internalType": "uint8",
          "name": "",
          "type": "uint8"
        }
      ],
      "stateMutability": "view",
      "type": "function"
    },
    {
      "inputs": [],
      "name": "healthCap",
      "outputs": [
        {
          "internalType": "uint8",
          "name": "",
          "type": "uint8"
        }
      ],
      "stateMutability": "view",
      "type": "function"
    },
    {
      "inputs": [],
      "name": "installCloneInTank",
      "outputs": [],
      "stateMutability": "payable",
      "type": "function"
    },
    {
      "inputs": [
        {
          "internalType": "address",
          "name": "owner",
          "type": "address"
        },
        {
          "internalType": "address",
          "name": "operator",
          "type": "address"
        }
      ],
      "name": "isApprovedForAll",
      "outputs": [
        {
          "internalType": "bool",
          "name": "",
          "type": "bool"
        }
      ],
      "stateMutability": "view",
      "type": "function"
    },
    {
      "inputs": [],
      "name": "maxClonesCap",
      "outputs": [
        {
          "internalType": "uint8",
          "name": "",
          "type": "uint8"
        }
      ],
      "stateMutability": "view",
      "type": "function"
    },
    {
      "inputs": [],
      "name": "meleeCap",
      "outputs": [
        {
          "internalType": "uint8",
          "name": "",
          "type": "uint8"
        }
      ],
      "stateMutability": "view",
      "type": "function"
    },
    {
      "inputs": [],
      "name": "mintCost",
      "outputs": [
        {
          "internalType": "uint256",
          "name": "",
          "type": "uint256"
        }
      ],
      "stateMutability": "view",
      "type": "function"
    },
    {
      "inputs": [],
      "name": "mintIsActive",
      "outputs": [
        {
          "internalType": "bool",
          "name": "",
          "type": "bool"
        }
      ],
      "stateMutability": "view",
      "type": "function"
    },
    {
      "inputs": [],
      "name": "name",
      "outputs": [
        {
          "internalType": "string",
          "name": "",
          "type": "string"
        }
      ],
      "stateMutability": "view",
      "type": "function"
    },
    {
      "inputs": [],
      "name": "owner",
      "outputs": [
        {
          "internalType": "address",
          "name": "",
          "type": "address"
        }
      ],
      "stateMutability": "view",
      "type": "function"
    },
    {
      "inputs": [
        {
          "internalType": "uint256",
          "name": "tokenId",
          "type": "uint256"
        }
      ],
      "name": "ownerOf",
      "outputs": [
        {
          "internalType": "address",
          "name": "",
          "type": "address"
        }
      ],
      "stateMutability": "view",
      "type": "function"
    },
    {
      "inputs": [],
      "name": "renounceOwnership",
      "outputs": [],
      "stateMutability": "nonpayable",
      "type": "function"
    },
    {
      "inputs": [
        {
          "internalType": "address",
          "name": "from",
          "type": "address"
        },
        {
          "internalType": "address",
          "name": "to",
          "type": "address"
        },
        {
          "internalType": "uint256",
          "name": "tokenId",
          "type": "uint256"
        }
      ],
      "name": "safeTransferFrom",
      "outputs": [],
      "stateMutability": "nonpayable",
      "type": "function"
    },
    {
      "inputs": [
        {
          "internalType": "address",
          "name": "from",
          "type": "address"
        },
        {
          "internalType": "address",
          "name": "to",
          "type": "address"
        },
        {
          "internalType": "uint256",
          "name": "tokenId",
          "type": "uint256"
        },
        {
          "internalType": "bytes",
          "name": "data",
          "type": "bytes"
        }
      ],
      "name": "safeTransferFrom",
      "outputs": [],
      "stateMutability": "nonpayable",
      "type": "function"
    },
    {
      "inputs": [
        {
          "internalType": "address",
          "name": "operator",
          "type": "address"
        },
        {
          "internalType": "bool",
          "name": "approved",
          "type": "bool"
        }
      ],
      "name": "setApprovalForAll",
      "outputs": [],
      "stateMutability": "nonpayable",
      "type": "function"
    },
    {
      "inputs": [],
      "name": "shootCap",
      "outputs": [
        {
          "internalType": "uint8",
          "name": "",
          "type": "uint8"
        }
      ],
      "stateMutability": "view",
      "type": "function"
    },
    {
      "inputs": [
        {
          "internalType": "bytes4",
          "name": "interfaceId",
          "type": "bytes4"
        }
      ],
      "name": "supportsInterface",
      "outputs": [
        {
          "internalType": "bool",
          "name": "",
          "type": "bool"
        }
      ],
      "stateMutability": "view",
      "type": "function"
    },
    {
      "inputs": [],
      "name": "symbol",
      "outputs": [
        {
          "internalType": "string",
          "name": "",
          "type": "string"
        }
      ],
      "stateMutability": "view",
      "type": "function"
    },
    {
      "inputs": [
        {
          "internalType": "uint256",
          "name": "tokenId",
          "type": "uint256"
        }
      ],
      "name": "tokenURI",
      "outputs": [
        {
          "internalType": "string",
          "name": "",
          "type": "string"
        }
      ],
      "stateMutability": "view",
      "type": "function"
    },
    {
      "inputs": [
        {
          "internalType": "address",
          "name": "from",
          "type": "address"
        },
        {
          "internalType": "address",
          "name": "to",
          "type": "address"
        },
        {
          "internalType": "uint256",
          "name": "tokenId",
          "type": "uint256"
        }
      ],
      "name": "transferFrom",
      "outputs": [],
      "stateMutability": "nonpayable",
      "type": "function"
    },
    {
      "inputs": [
        {
          "internalType": "address",
          "name": "newOwner",
          "type": "address"
        }
      ],
      "name": "transferOwnership",
      "outputs": [],
      "stateMutability": "nonpayable",
      "type": "function"
    }
  ],
  "transactionHash": "0xdb990980dfe1a723944fb76322f7d85fa777b11ced396f192b9ee95034e5a926",
  "args": [],
  "numDeployments": 1,
  "solcInputHash": "2d05797dad6b053e2adb192003744f09",
  "bytecode": "0x608060405260006008556509184e72a0006009556000600a60006101000a81548160ff0219169083151502179055506004600a60156101000a81548160ff021916908360ff1602179055506004600a60166101000a81548160ff021916908360ff1602179055506004600a60176101000a81548160ff021916908360ff1602179055506004600a60186101000a81548160ff021916908360ff1602179055506004600a60196101000a81548160ff021916908360ff1602179055506004600a601a6101000a81548160ff021916908360ff1602179055506004600a601b6101000a81548160ff021916908360ff1602179055506064600a601c6101000a81548160ff021916908360ff160217905550600a80601d6101000a81548160ff021916908360ff160217905550600a80601e6101000a81548160ff021916908360ff1602179055506003600a601f6101000a81548160ff021916908360ff160217905550600a600b60006101000a81548160ff021916908360ff1602179055503480156200018957600080fd5b506040518060400160405280601681526020017f426c61636b20436f6d65742043686172616374657273000000000000000000008152506040518060400160405280600381526020017f424343000000000000000000000000000000000000000000000000000000000081525081600090805190602001906200020e9291906200031e565b508060019080519060200190620002279291906200031e565b5050506200024a6200023e6200025060201b60201c565b6200025860201b60201c565b62000433565b600033905090565b6000600760009054906101000a900473ffffffffffffffffffffffffffffffffffffffff16905081600760006101000a81548173ffffffffffffffffffffffffffffffffffffffff021916908373ffffffffffffffffffffffffffffffffffffffff1602179055508173ffffffffffffffffffffffffffffffffffffffff168173ffffffffffffffffffffffffffffffffffffffff167f8be0079c531659141344cd1fd0a4f28419497f9722a3daafe3b4186f6b6457e060405160405180910390a35050565b8280546200032c90620003fd565b90600052602060002090601f0160209004810192826200035057600085556200039c565b82601f106200036b57805160ff19168380011785556200039c565b828001600101855582156200039c579182015b828111156200039b5782518255916020019190600101906200037e565b5b509050620003ab9190620003af565b5090565b5b80821115620003ca576000816000905550600101620003b0565b5090565b7f4e487b7100000000000000000000000000000000000000000000000000000000600052602260045260246000fd5b600060028204905060018216806200041657607f821691505b602082108114156200042d576200042c620003ce565b5b50919050565b6140dc80620004436000396000f3fe6080604052600436106102045760003560e01c80636284ef2c11610118578063a22cb465116100a0578063bdb4b8481161006f578063bdb4b8481461076f578063c87b56dd1461079a578063cbfb2388146107d7578063e985e9c514610802578063f2fde38b1461083f57610204565b8063a22cb465146106c7578063b440e27d146106f0578063b88d4fde1461071b578063b926be2a1461074457610204565b806370a08231116100e757806370a08231146105f2578063715018a61461062f578063733882b7146106465780638da5cb5b1461067157806395d89b411461069c57610204565b80636284ef2c146105345780636352211e1461055f578063689b70711461059c5780636963c568146105c757610204565b8063390aab2d1161019b578063471a42941161016a578063471a42941461042c5780634810bc591461045757806350254a851461049f5780635c65c718146104ca5780635ee38b2f1461050957610204565b8063390aab2d146103a357806339a54a30146103ad57806342842e0e146103d857806345de18b81461040157610204565b80630f5a3b7b116101d75780630f5a3b7b146102d757806319e7ce8b146103005780631bdbe34d1461033d57806323b872dd1461037a57610204565b806301ffc9a71461020957806306fdde0314610246578063081812fc14610271578063095ea7b3146102ae575b600080fd5b34801561021557600080fd5b50610230600480360381019061022b9190612aa7565b610868565b60405161023d9190612aef565b60405180910390f35b34801561025257600080fd5b5061025b61094a565b6040516102689190612ba3565b60405180910390f35b34801561027d57600080fd5b5061029860048036038101906102939190612bfb565b6109dc565b6040516102a59190612c69565b60405180910390f35b3480156102ba57600080fd5b506102d560048036038101906102d09190612cb0565b610a22565b005b3480156102e357600080fd5b506102fe60048036038101906102f99190612bfb565b610b3a565b005b34801561030c57600080fd5b5061032760048036038101906103229190612bfb565b6110f3565b6040516103349190612c69565b60405180910390f35b34801561034957600080fd5b50610364600480360381019061035f9190612bfb565b611126565b6040516103719190612c69565b60405180910390f35b34801561038657600080fd5b506103a1600480360381019061039c9190612cf0565b611159565b005b6103ab6111b9565b005b3480156103b957600080fd5b506103c261149b565b6040516103cf9190612d5f565b60405180910390f35b3480156103e457600080fd5b506103ff60048036038101906103fa9190612cf0565b6114ae565b005b34801561040d57600080fd5b506104166114ce565b6040516104239190612d5f565b60405180910390f35b34801561043857600080fd5b506104416114e1565b60405161044e9190612aef565b60405180910390f35b34801561046357600080fd5b5061047e60048036038101906104799190612bfb565b6114f4565b6040516104969c9b9a99989796959493929190612d7a565b60405180910390f35b3480156104ab57600080fd5b506104b46115fc565b6040516104c19190612d5f565b60405180910390f35b3480156104d657600080fd5b506104f160048036038101906104ec9190612bfb565b61160f565b60405161050093929190612e5c565b60405180910390f35b34801561051557600080fd5b5061051e611656565b60405161052b9190612d5f565b60405180910390f35b34801561054057600080fd5b50610549611669565b6040516105569190612d5f565b60405180910390f35b34801561056b57600080fd5b5061058660048036038101906105819190612bfb565b61167c565b6040516105939190612c69565b60405180910390f35b3480156105a857600080fd5b506105b161172e565b6040516105be9190612d5f565b60405180910390f35b3480156105d357600080fd5b506105dc611741565b6040516105e99190612d5f565b60405180910390f35b3480156105fe57600080fd5b5061061960048036038101906106149190612e93565b611754565b6040516106269190612ec0565b60405180910390f35b34801561063b57600080fd5b5061064461180c565b005b34801561065257600080fd5b5061065b611820565b6040516106689190612d5f565b60405180910390f35b34801561067d57600080fd5b50610686611833565b6040516106939190612c69565b60405180910390f35b3480156106a857600080fd5b506106b161185d565b6040516106be9190612ba3565b60405180910390f35b3480156106d357600080fd5b506106ee60048036038101906106e99190612f07565b6118ef565b005b3480156106fc57600080fd5b50610705611905565b6040516107129190612c69565b60405180910390f35b34801561072757600080fd5b50610742600480360381019061073d919061307c565b61192b565b005b34801561075057600080fd5b5061075961198d565b6040516107669190612d5f565b60405180910390f35b34801561077b57600080fd5b506107846119a0565b6040516107919190612ec0565b60405180910390f35b3480156107a657600080fd5b506107c160048036038101906107bc9190612bfb565b6119a6565b6040516107ce9190612ba3565b60405180910390f35b3480156107e357600080fd5b506107ec611ab9565b6040516107f99190612d5f565b60405180910390f35b34801561080e57600080fd5b50610829600480360381019061082491906130ff565b611acc565b6040516108369190612aef565b60405180910390f35b34801561084b57600080fd5b5061086660048036038101906108619190612e93565b611b60565b005b60007f80ac58cd000000000000000000000000000000000000000000000000000000007bffffffffffffffffffffffffffffffffffffffffffffffffffffffff1916827bffffffffffffffffffffffffffffffffffffffffffffffffffffffff1916148061093357507f5b5e139f000000000000000000000000000000000000000000000000000000007bffffffffffffffffffffffffffffffffffffffffffffffffffffffff1916827bffffffffffffffffffffffffffffffffffffffffffffffffffffffff1916145b80610943575061094282611be4565b5b9050919050565b6060600080546109599061316e565b80601f01602080910402602001604051908101604052809291908181526020018280546109859061316e565b80156109d25780601f106109a7576101008083540402835291602001916109d2565b820191906000526020600020905b8154815290600101906020018083116109b557829003601f168201915b5050505050905090565b60006109e782611c4e565b6004600083815260200190815260200160002060009054906101000a900473ffffffffffffffffffffffffffffffffffffffff169050919050565b6000610a2d8261167c565b90508073ffffffffffffffffffffffffffffffffffffffff168373ffffffffffffffffffffffffffffffffffffffff161415610a9e576040517f08c379a0000000000000000000000000000000000000000000000000000000008152600401610a9590613212565b60405180910390fd5b8073ffffffffffffffffffffffffffffffffffffffff16610abd611c99565b73ffffffffffffffffffffffffffffffffffffffff161480610aec5750610aeb81610ae6611c99565b611acc565b5b610b2b576040517f08c379a0000000000000000000000000000000000000000000000000000000008152600401610b22906132a4565b60405180910390fd5b610b358383611ca1565b505050565b3373ffffffffffffffffffffffffffffffffffffffff16600f600083815260200190815260200160002060009054906101000a900473ffffffffffffffffffffffffffffffffffffffff1673ffffffffffffffffffffffffffffffffffffffff1614610bdb576040517f08c379a0000000000000000000000000000000000000000000000000000000008152600401610bd290613310565b60405180910390fd5b60001515600e8281548110610bf357610bf2613330565b5b906000526020600020906003020160020160009054906101000a900460ff16151514610c54576040517f08c379a0000000000000000000000000000000000000000000000000000000008152600401610c4b906133ab565b60405180910390fd5b43600e8281548110610c6957610c68613330565b5b9060005260206000209060030201600101541115610cbc576040517f08c379a0000000000000000000000000000000000000000000000000000000008152600401610cb390613417565b60405180910390fd5b60086000815480929190610ccf90613466565b9190505550600060085442600e8481548110610cee57610ced613330565b5b906000526020600020906003020160000154604051602001610d12939291906134f1565b604051602081830303815290604052805190602001209050600c604051806101800160405280610d5e6002600a60159054906101000a900460ff16610d5987600380611d5a565b611d91565b60ff168152602001610d8d6002600a60169054906101000a900460ff16610d888760036006611d5a565b611d91565b60ff168152602001610dbc6001600a60179054906101000a900460ff16610db78760036009611d5a565b611d91565b60ff168152602001610deb6001600a60189054906101000a900460ff16610de6876003600c611d5a565b611d91565b60ff168152602001610e1a6001600a60199054906101000a900460ff16610e15876003600f611d5a565b611d91565b60ff168152602001610e496001600a601a9054906101000a900460ff16610e448760036012611d5a565b611d91565b60ff168152602001610e786001600a601b9054906101000a900460ff16610e738760036015611d5a565b611d91565b60ff168152602001600060ff168152602001610eb16000600a601c9054906101000a900460ff16610eac8760046018611d5a565b611d91565b60ff168152602001610ee06000600a601d9054906101000a900460ff16610edb876004601c611d5a565b611d91565b60ff168152602001610f0f6000600a601e9054906101000a900460ff16610f0a8760046020611d5a565b611d91565b60ff168152602001600015158152509080600181540180825580915050600190039060005260206000200160009091909190915060008201518160000160006101000a81548160ff021916908360ff16021790555060208201518160000160016101000a81548160ff021916908360ff16021790555060408201518160000160026101000a81548160ff021916908360ff16021790555060608201518160000160036101000a81548160ff021916908360ff16021790555060808201518160000160046101000a81548160ff021916908360ff16021790555060a08201518160000160056101000a81548160ff021916908360ff16021790555060c08201518160000160066101000a81548160ff021916908360ff16021790555060e08201518160000160076101000a81548160ff021916908360ff1602179055506101008201518160000160086101000a81548160ff021916908360ff1602179055506101208201518160000160096101000a81548160ff021916908360ff16021790555061014082015181600001600a6101000a81548160ff021916908360ff16021790555061016082015181600001600b6101000a81548160ff02191690831515021790555050506110ef336001600c805490506110ea919061352e565b611dcf565b5050565b600d6020528060005260406000206000915054906101000a900473ffffffffffffffffffffffffffffffffffffffff1681565b600f6020528060005260406000206000915054906101000a900473ffffffffffffffffffffffffffffffffffffffff1681565b61116a611164611c99565b82611ded565b6111a9576040517f08c379a00000000000000000000000000000000000000000000000000000000081526004016111a0906135d4565b60405180910390fd5b6111b4838383611e82565b505050565b6111c1611833565b73ffffffffffffffffffffffffffffffffffffffff163373ffffffffffffffffffffffffffffffffffffffff1614806111fb575060095434145b61123a576040517f08c379a000000000000000000000000000000000000000000000000000000000815260040161123190613640565b60405180910390fd5b611242611833565b73ffffffffffffffffffffffffffffffffffffffff163373ffffffffffffffffffffffffffffffffffffffff16148061128e575060011515600a60009054906101000a900460ff161515145b6112cd576040517f08c379a00000000000000000000000000000000000000000000000000000000081526004016112c4906136ac565b60405180910390fd5b60006001600a601f9054906101000a900460ff16600b60009054906101000a900460ff166112fb91906136cc565b6113059190613700565b905060004260405160200161131a9190613737565b6040516020818303038152906040528051906020012060001c90506000600a601f9054906101000a900460ff1660ff168360ff16836113599190613781565b61136391906137b2565b90506008600081548092919061137890613466565b9190505550600e604051806060016040528060085442336040516020016113a193929190613850565b60405160208183030381529060405280519060200120815260200183436113c891906137b2565b8152602001600015158152509080600181540180825580915050600190039060005260206000209060030201600090919091909150600082015181600001556020820151816001015560408201518160020160006101000a81548160ff021916908315150217905550505033600f60006001600e8054905061144a919061352e565b815260200190815260200160002060006101000a81548173ffffffffffffffffffffffffffffffffffffffff021916908373ffffffffffffffffffffffffffffffffffffffff160217905550505050565b600a60189054906101000a900460ff1681565b6114c98383836040518060200160405280600081525061192b565b505050565b600a601b9054906101000a900460ff1681565b600a60009054906101000a900460ff1681565b600c818154811061150457600080fd5b906000526020600020016000915090508060000160009054906101000a900460ff16908060000160019054906101000a900460ff16908060000160029054906101000a900460ff16908060000160039054906101000a900460ff16908060000160049054906101000a900460ff16908060000160059054906101000a900460ff16908060000160069054906101000a900460ff16908060000160079054906101000a900460ff16908060000160089054906101000a900460ff16908060000160099054906101000a900460ff169080600001600a9054906101000a900460ff169080600001600b9054906101000a900460ff1690508c565b600b60009054906101000a900460ff1681565b600e818154811061161f57600080fd5b90600052602060002090600302016000915090508060000154908060010154908060020160009054906101000a900460ff16905083565b600a601c9054906101000a900460ff1681565b600a60179054906101000a900460ff1681565b6000806002600084815260200190815260200160002060009054906101000a900473ffffffffffffffffffffffffffffffffffffffff169050600073ffffffffffffffffffffffffffffffffffffffff168173ffffffffffffffffffffffffffffffffffffffff161415611725576040517f08c379a000000000000000000000000000000000000000000000000000000000815260040161171c906138d9565b60405180910390fd5b80915050919050565b600a601f9054906101000a900460ff1681565b600a60169054906101000a900460ff1681565b60008073ffffffffffffffffffffffffffffffffffffffff168273ffffffffffffffffffffffffffffffffffffffff1614156117c5576040517f08c379a00000000000000000000000000000000000000000000000000000000081526004016117bc9061396b565b60405180910390fd5b600360008373ffffffffffffffffffffffffffffffffffffffff1673ffffffffffffffffffffffffffffffffffffffff168152602001908152602001600020549050919050565b6118146120e9565b61181e6000612167565b565b600a601a9054906101000a900460ff1681565b6000600760009054906101000a900473ffffffffffffffffffffffffffffffffffffffff16905090565b60606001805461186c9061316e565b80601f01602080910402602001604051908101604052809291908181526020018280546118989061316e565b80156118e55780601f106118ba576101008083540402835291602001916118e5565b820191906000526020600020905b8154815290600101906020018083116118c857829003601f168201915b5050505050905090565b6119016118fa611c99565b838361222d565b5050565b600a60019054906101000a900473ffffffffffffffffffffffffffffffffffffffff1681565b61193c611936611c99565b83611ded565b61197b576040517f08c379a0000000000000000000000000000000000000000000000000000000008152600401611972906135d4565b60405180910390fd5b6119878484848461239a565b50505050565b600a60159054906101000a900460ff1681565b60095481565b60606119b182611c4e565b60006006600084815260200190815260200160002080546119d19061316e565b80601f01602080910402602001604051908101604052809291908181526020018280546119fd9061316e565b8015611a4a5780601f10611a1f57610100808354040283529160200191611a4a565b820191906000526020600020905b815481529060010190602001808311611a2d57829003601f168201915b505050505090506000611a5b6123f6565b9050600081511415611a71578192505050611ab4565b600082511115611aa6578082604051602001611a8e9291906139c7565b60405160208183030381529060405292505050611ab4565b611aaf8461240d565b925050505b919050565b600a60199054906101000a900460ff1681565b6000600560008473ffffffffffffffffffffffffffffffffffffffff1673ffffffffffffffffffffffffffffffffffffffff16815260200190815260200160002060008373ffffffffffffffffffffffffffffffffffffffff1673ffffffffffffffffffffffffffffffffffffffff16815260200190815260200160002060009054906101000a900460ff16905092915050565b611b686120e9565b600073ffffffffffffffffffffffffffffffffffffffff168173ffffffffffffffffffffffffffffffffffffffff161415611bd8576040517f08c379a0000000000000000000000000000000000000000000000000000000008152600401611bcf90613a5d565b60405180910390fd5b611be181612167565b50565b60007f01ffc9a7000000000000000000000000000000000000000000000000000000007bffffffffffffffffffffffffffffffffffffffffffffffffffffffff1916827bffffffffffffffffffffffffffffffffffffffffffffffffffffffff1916149050919050565b611c5781612475565b611c96576040517f08c379a0000000000000000000000000000000000000000000000000000000008152600401611c8d906138d9565b60405180910390fd5b50565b600033905090565b816004600083815260200190815260200160002060006101000a81548173ffffffffffffffffffffffffffffffffffffffff021916908373ffffffffffffffffffffffffffffffffffffffff160217905550808273ffffffffffffffffffffffffffffffffffffffff16611d148361167c565b73ffffffffffffffffffffffffffffffffffffffff167f8c5be1e5ebec7d5bd14f71427d1e84f3dd0314c0f7b2291e5b200ac8c7c3b92560405160405180910390a45050565b600080826001856002611d6d9190613bb0565b611d77919061352e565b60001b901b905082818616901c60001c9150509392505050565b60008060018585611da291906136cc565b611dac9190613700565b9050848184611dbb9190613bfb565b611dc59190613700565b9150509392505050565b611de98282604051806020016040528060008152506124e1565b5050565b600080611df98361167c565b90508073ffffffffffffffffffffffffffffffffffffffff168473ffffffffffffffffffffffffffffffffffffffff161480611e3b5750611e3a8185611acc565b5b80611e7957508373ffffffffffffffffffffffffffffffffffffffff16611e61846109dc565b73ffffffffffffffffffffffffffffffffffffffff16145b91505092915050565b8273ffffffffffffffffffffffffffffffffffffffff16611ea28261167c565b73ffffffffffffffffffffffffffffffffffffffff1614611ef8576040517f08c379a0000000000000000000000000000000000000000000000000000000008152600401611eef90613c9e565b60405180910390fd5b600073ffffffffffffffffffffffffffffffffffffffff168273ffffffffffffffffffffffffffffffffffffffff161415611f68576040517f08c379a0000000000000000000000000000000000000000000000000000000008152600401611f5f90613d30565b60405180910390fd5b611f7383838361253c565b611f7e600082611ca1565b6001600360008573ffffffffffffffffffffffffffffffffffffffff1673ffffffffffffffffffffffffffffffffffffffff1681526020019081526020016000206000828254611fce919061352e565b925050819055506001600360008473ffffffffffffffffffffffffffffffffffffffff1673ffffffffffffffffffffffffffffffffffffffff168152602001908152602001600020600082825461202591906137b2565b92505081905550816002600083815260200190815260200160002060006101000a81548173ffffffffffffffffffffffffffffffffffffffff021916908373ffffffffffffffffffffffffffffffffffffffff160217905550808273ffffffffffffffffffffffffffffffffffffffff168473ffffffffffffffffffffffffffffffffffffffff167fddf252ad1be2c89b69c2b068fc378daa952ba7f163c4a11628f55a4df523b3ef60405160405180910390a46120e4838383612541565b505050565b6120f1611c99565b73ffffffffffffffffffffffffffffffffffffffff1661210f611833565b73ffffffffffffffffffffffffffffffffffffffff1614612165576040517f08c379a000000000000000000000000000000000000000000000000000000000815260040161215c90613d9c565b60405180910390fd5b565b6000600760009054906101000a900473ffffffffffffffffffffffffffffffffffffffff16905081600760006101000a81548173ffffffffffffffffffffffffffffffffffffffff021916908373ffffffffffffffffffffffffffffffffffffffff1602179055508173ffffffffffffffffffffffffffffffffffffffff168173ffffffffffffffffffffffffffffffffffffffff167f8be0079c531659141344cd1fd0a4f28419497f9722a3daafe3b4186f6b6457e060405160405180910390a35050565b8173ffffffffffffffffffffffffffffffffffffffff168373ffffffffffffffffffffffffffffffffffffffff16141561229c576040517f08c379a000000000000000000000000000000000000000000000000000000000815260040161229390613e08565b60405180910390fd5b80600560008573ffffffffffffffffffffffffffffffffffffffff1673ffffffffffffffffffffffffffffffffffffffff16815260200190815260200160002060008473ffffffffffffffffffffffffffffffffffffffff1673ffffffffffffffffffffffffffffffffffffffff16815260200190815260200160002060006101000a81548160ff0219169083151502179055508173ffffffffffffffffffffffffffffffffffffffff168373ffffffffffffffffffffffffffffffffffffffff167f17307eab39ab6107e8899845ad3d59bd9653f200f220920489ca2b5937696c318360405161238d9190612aef565b60405180910390a3505050565b6123a5848484611e82565b6123b184848484612546565b6123f0576040517f08c379a00000000000000000000000000000000000000000000000000000000081526004016123e790613e9a565b60405180910390fd5b50505050565b606060405180602001604052806000815250905090565b606061241882611c4e565b60006124226123f6565b90506000815111612442576040518060200160405280600081525061246d565b8061244c846126dd565b60405160200161245d9291906139c7565b6040516020818303038152906040525b915050919050565b60008073ffffffffffffffffffffffffffffffffffffffff166002600084815260200190815260200160002060009054906101000a900473ffffffffffffffffffffffffffffffffffffffff1673ffffffffffffffffffffffffffffffffffffffff1614159050919050565b6124eb838361283e565b6124f86000848484612546565b612537576040517f08c379a000000000000000000000000000000000000000000000000000000000815260040161252e90613e9a565b60405180910390fd5b505050565b505050565b505050565b60006125678473ffffffffffffffffffffffffffffffffffffffff16612a18565b156126d0578373ffffffffffffffffffffffffffffffffffffffff1663150b7a02612590611c99565b8786866040518563ffffffff1660e01b81526004016125b29493929190613f0f565b602060405180830381600087803b1580156125cc57600080fd5b505af19250505080156125fd57506040513d601f19601f820116820180604052508101906125fa9190613f70565b60015b612680573d806000811461262d576040519150601f19603f3d011682016040523d82523d6000602084013e612632565b606091505b50600081511415612678576040517f08c379a000000000000000000000000000000000000000000000000000000000815260040161266f90613e9a565b60405180910390fd5b805181602001fd5b63150b7a0260e01b7bffffffffffffffffffffffffffffffffffffffffffffffffffffffff1916817bffffffffffffffffffffffffffffffffffffffffffffffffffffffff1916149150506126d5565b600190505b949350505050565b60606000821415612725576040518060400160405280600181526020017f30000000000000000000000000000000000000000000000000000000000000008152509050612839565b600082905060005b6000821461275757808061274090613466565b915050600a826127509190613f9d565b915061272d565b60008167ffffffffffffffff81111561277357612772612f51565b5b6040519080825280601f01601f1916602001820160405280156127a55781602001600182028036833780820191505090505b5090505b60008514612832576001826127be919061352e565b9150600a856127cd9190613781565b60306127d991906137b2565b60f81b8183815181106127ef576127ee613330565b5b60200101907effffffffffffffffffffffffffffffffffffffffffffffffffffffffffffff1916908160001a905350600a8561282b9190613f9d565b94506127a9565b8093505050505b919050565b600073ffffffffffffffffffffffffffffffffffffffff168273ffffffffffffffffffffffffffffffffffffffff1614156128ae576040517f08c379a00000000000000000000000000000000000000000000000000000000081526004016128a59061401a565b60405180910390fd5b6128b781612475565b156128f7576040517f08c379a00000000000000000000000000000000000000000000000000000000081526004016128ee90614086565b60405180910390fd5b6129036000838361253c565b6001600360008473ffffffffffffffffffffffffffffffffffffffff1673ffffffffffffffffffffffffffffffffffffffff168152602001908152602001600020600082825461295391906137b2565b92505081905550816002600083815260200190815260200160002060006101000a81548173ffffffffffffffffffffffffffffffffffffffff021916908373ffffffffffffffffffffffffffffffffffffffff160217905550808273ffffffffffffffffffffffffffffffffffffffff16600073ffffffffffffffffffffffffffffffffffffffff167fddf252ad1be2c89b69c2b068fc378daa952ba7f163c4a11628f55a4df523b3ef60405160405180910390a4612a1460008383612541565b5050565b6000808273ffffffffffffffffffffffffffffffffffffffff163b119050919050565b6000604051905090565b600080fd5b600080fd5b60007fffffffff0000000000000000000000000000000000000000000000000000000082169050919050565b612a8481612a4f565b8114612a8f57600080fd5b50565b600081359050612aa181612a7b565b92915050565b600060208284031215612abd57612abc612a45565b5b6000612acb84828501612a92565b91505092915050565b60008115159050919050565b612ae981612ad4565b82525050565b6000602082019050612b046000830184612ae0565b92915050565b600081519050919050565b600082825260208201905092915050565b60005b83811015612b44578082015181840152602081019050612b29565b83811115612b53576000848401525b50505050565b6000601f19601f8301169050919050565b6000612b7582612b0a565b612b7f8185612b15565b9350612b8f818560208601612b26565b612b9881612b59565b840191505092915050565b60006020820190508181036000830152612bbd8184612b6a565b905092915050565b6000819050919050565b612bd881612bc5565b8114612be357600080fd5b50565b600081359050612bf581612bcf565b92915050565b600060208284031215612c1157612c10612a45565b5b6000612c1f84828501612be6565b91505092915050565b600073ffffffffffffffffffffffffffffffffffffffff82169050919050565b6000612c5382612c28565b9050919050565b612c6381612c48565b82525050565b6000602082019050612c7e6000830184612c5a565b92915050565b612c8d81612c48565b8114612c9857600080fd5b50565b600081359050612caa81612c84565b92915050565b60008060408385031215612cc757612cc6612a45565b5b6000612cd585828601612c9b565b9250506020612ce685828601612be6565b9150509250929050565b600080600060608486031215612d0957612d08612a45565b5b6000612d1786828701612c9b565b9350506020612d2886828701612c9b565b9250506040612d3986828701612be6565b9150509250925092565b600060ff82169050919050565b612d5981612d43565b82525050565b6000602082019050612d746000830184612d50565b92915050565b600061018082019050612d90600083018f612d50565b612d9d602083018e612d50565b612daa604083018d612d50565b612db7606083018c612d50565b612dc4608083018b612d50565b612dd160a083018a612d50565b612dde60c0830189612d50565b612deb60e0830188612d50565b612df9610100830187612d50565b612e07610120830186612d50565b612e15610140830185612d50565b612e23610160830184612ae0565b9d9c50505050505050505050505050565b6000819050919050565b612e4781612e34565b82525050565b612e5681612bc5565b82525050565b6000606082019050612e716000830186612e3e565b612e7e6020830185612e4d565b612e8b6040830184612ae0565b949350505050565b600060208284031215612ea957612ea8612a45565b5b6000612eb784828501612c9b565b91505092915050565b6000602082019050612ed56000830184612e4d565b92915050565b612ee481612ad4565b8114612eef57600080fd5b50565b600081359050612f0181612edb565b92915050565b60008060408385031215612f1e57612f1d612a45565b5b6000612f2c85828601612c9b565b9250506020612f3d85828601612ef2565b9150509250929050565b600080fd5b600080fd5b7f4e487b7100000000000000000000000000000000000000000000000000000000600052604160045260246000fd5b612f8982612b59565b810181811067ffffffffffffffff82111715612fa857612fa7612f51565b5b80604052505050565b6000612fbb612a3b565b9050612fc78282612f80565b919050565b600067ffffffffffffffff821115612fe757612fe6612f51565b5b612ff082612b59565b9050602081019050919050565b82818337600083830152505050565b600061301f61301a84612fcc565b612fb1565b90508281526020810184848401111561303b5761303a612f4c565b5b613046848285612ffd565b509392505050565b600082601f83011261306357613062612f47565b5b813561307384826020860161300c565b91505092915050565b6000806000806080858703121561309657613095612a45565b5b60006130a487828801612c9b565b94505060206130b587828801612c9b565b93505060406130c687828801612be6565b925050606085013567ffffffffffffffff8111156130e7576130e6612a4a565b5b6130f38782880161304e565b91505092959194509250565b6000806040838503121561311657613115612a45565b5b600061312485828601612c9b565b925050602061313585828601612c9b565b9150509250929050565b7f4e487b7100000000000000000000000000000000000000000000000000000000600052602260045260246000fd5b6000600282049050600182168061318657607f821691505b6020821081141561319a5761319961313f565b5b50919050565b7f4552433732313a20617070726f76616c20746f2063757272656e74206f776e6560008201527f7200000000000000000000000000000000000000000000000000000000000000602082015250565b60006131fc602183612b15565b9150613207826131a0565b604082019050919050565b6000602082019050818103600083015261322b816131ef565b9050919050565b7f4552433732313a20617070726f76652063616c6c6572206973206e6f7420746f60008201527f6b656e206f776e6572206e6f7220617070726f76656420666f7220616c6c0000602082015250565b600061328e603e83612b15565b915061329982613232565b604082019050919050565b600060208201905081810360008301526132bd81613281565b9050919050565b7f6f6e6c79206f776e65722063616e20646563616e742074616e6b000000000000600082015250565b60006132fa601a83612b15565b9150613305826132c4565b602082019050919050565b60006020820190508181036000830152613329816132ed565b9050919050565b7f4e487b7100000000000000000000000000000000000000000000000000000000600052603260045260246000fd5b7f636c6f6e6520616c726561647920646563616e74656400000000000000000000600082015250565b6000613395601683612b15565b91506133a08261335f565b602082019050919050565b600060208201905081810360008301526133c481613388565b9050919050565b7f63616e277420646563616e742079657400000000000000000000000000000000600082015250565b6000613401601083612b15565b915061340c826133cb565b602082019050919050565b60006020820190508181036000830152613430816133f4565b9050919050565b7f4e487b7100000000000000000000000000000000000000000000000000000000600052601160045260246000fd5b600061347182612bc5565b91507fffffffffffffffffffffffffffffffffffffffffffffffffffffffffffffffff8214156134a4576134a3613437565b5b600182019050919050565b6000819050919050565b6134ca6134c582612bc5565b6134af565b82525050565b6000819050919050565b6134eb6134e682612e34565b6134d0565b82525050565b60006134fd82866134b9565b60208201915061350d82856134b9565b60208201915061351d82846134da565b602082019150819050949350505050565b600061353982612bc5565b915061354483612bc5565b92508282101561355757613556613437565b5b828203905092915050565b7f4552433732313a2063616c6c6572206973206e6f7420746f6b656e206f776e6560008201527f72206e6f7220617070726f766564000000000000000000000000000000000000602082015250565b60006135be602e83612b15565b91506135c982613562565b604082019050919050565b600060208201905081810360008301526135ed816135b1565b9050919050565b7f696e636f7272656374207061796d656e74000000000000000000000000000000600082015250565b600061362a601183612b15565b9150613635826135f4565b602082019050919050565b600060208201905081810360008301526136598161361d565b9050919050565b7f6d696e74696e67206973206e6f74206163746976650000000000000000000000600082015250565b6000613696601583612b15565b91506136a182613660565b602082019050919050565b600060208201905081810360008301526136c581613689565b9050919050565b60006136d782612d43565b91506136e283612d43565b9250828210156136f5576136f4613437565b5b828203905092915050565b600061370b82612d43565b915061371683612d43565b92508260ff0382111561372c5761372b613437565b5b828201905092915050565b600061374382846134b9565b60208201915081905092915050565b7f4e487b7100000000000000000000000000000000000000000000000000000000600052601260045260246000fd5b600061378c82612bc5565b915061379783612bc5565b9250826137a7576137a6613752565b5b828206905092915050565b60006137bd82612bc5565b91506137c883612bc5565b9250827fffffffffffffffffffffffffffffffffffffffffffffffffffffffffffffffff038211156137fd576137fc613437565b5b828201905092915050565b60008160601b9050919050565b600061382082613808565b9050919050565b600061383282613815565b9050919050565b61384a61384582612c48565b613827565b82525050565b600061385c82866134b9565b60208201915061386c82856134b9565b60208201915061387c8284613839565b601482019150819050949350505050565b7f4552433732313a20696e76616c696420746f6b656e2049440000000000000000600082015250565b60006138c3601883612b15565b91506138ce8261388d565b602082019050919050565b600060208201905081810360008301526138f2816138b6565b9050919050565b7f4552433732313a2061646472657373207a65726f206973206e6f74206120766160008201527f6c6964206f776e65720000000000000000000000000000000000000000000000602082015250565b6000613955602983612b15565b9150613960826138f9565b604082019050919050565b6000602082019050818103600083015261398481613948565b9050919050565b600081905092915050565b60006139a182612b0a565b6139ab818561398b565b93506139bb818560208601612b26565b80840191505092915050565b60006139d38285613996565b91506139df8284613996565b91508190509392505050565b7f4f776e61626c653a206e6577206f776e657220697320746865207a65726f206160008201527f6464726573730000000000000000000000000000000000000000000000000000602082015250565b6000613a47602683612b15565b9150613a52826139eb565b604082019050919050565b60006020820190508181036000830152613a7681613a3a565b9050919050565b60008160011c9050919050565b6000808291508390505b6001851115613ad457808604811115613ab057613aaf613437565b5b6001851615613abf5780820291505b8081029050613acd85613a7d565b9450613a94565b94509492505050565b600082613aed5760019050613ba9565b81613afb5760009050613ba9565b8160018114613b115760028114613b1b57613b4a565b6001915050613ba9565b60ff841115613b2d57613b2c613437565b5b8360020a915084821115613b4457613b43613437565b5b50613ba9565b5060208310610133831016604e8410600b8410161715613b7f5782820a905083811115613b7a57613b79613437565b5b613ba9565b613b8c8484846001613a8a565b92509050818404811115613ba357613ba2613437565b5b81810290505b9392505050565b6000613bbb82612bc5565b9150613bc683612bc5565b9250613bf37fffffffffffffffffffffffffffffffffffffffffffffffffffffffffffffffff8484613add565b905092915050565b6000613c0682612d43565b9150613c1183612d43565b925082613c2157613c20613752565b5b828206905092915050565b7f4552433732313a207472616e736665722066726f6d20696e636f72726563742060008201527f6f776e6572000000000000000000000000000000000000000000000000000000602082015250565b6000613c88602583612b15565b9150613c9382613c2c565b604082019050919050565b60006020820190508181036000830152613cb781613c7b565b9050919050565b7f4552433732313a207472616e7366657220746f20746865207a65726f2061646460008201527f7265737300000000000000000000000000000000000000000000000000000000602082015250565b6000613d1a602483612b15565b9150613d2582613cbe565b604082019050919050565b60006020820190508181036000830152613d4981613d0d565b9050919050565b7f4f776e61626c653a2063616c6c6572206973206e6f7420746865206f776e6572600082015250565b6000613d86602083612b15565b9150613d9182613d50565b602082019050919050565b60006020820190508181036000830152613db581613d79565b9050919050565b7f4552433732313a20617070726f766520746f2063616c6c657200000000000000600082015250565b6000613df2601983612b15565b9150613dfd82613dbc565b602082019050919050565b60006020820190508181036000830152613e2181613de5565b9050919050565b7f4552433732313a207472616e7366657220746f206e6f6e20455243373231526560008201527f63656976657220696d706c656d656e7465720000000000000000000000000000602082015250565b6000613e84603283612b15565b9150613e8f82613e28565b604082019050919050565b60006020820190508181036000830152613eb381613e77565b9050919050565b600081519050919050565b600082825260208201905092915050565b6000613ee182613eba565b613eeb8185613ec5565b9350613efb818560208601612b26565b613f0481612b59565b840191505092915050565b6000608082019050613f246000830187612c5a565b613f316020830186612c5a565b613f3e6040830185612e4d565b8181036060830152613f508184613ed6565b905095945050505050565b600081519050613f6a81612a7b565b92915050565b600060208284031215613f8657613f85612a45565b5b6000613f9484828501613f5b565b91505092915050565b6000613fa882612bc5565b9150613fb383612bc5565b925082613fc357613fc2613752565b5b828204905092915050565b7f4552433732313a206d696e7420746f20746865207a65726f2061646472657373600082015250565b6000614004602083612b15565b915061400f82613fce565b602082019050919050565b6000602082019050818103600083015261403381613ff7565b9050919050565b7f4552433732313a20746f6b656e20616c7265616479206d696e74656400000000600082015250565b6000614070601c83612b15565b915061407b8261403a565b602082019050919050565b6000602082019050818103600083015261409f81614063565b905091905056fea26469706673582212202110a73e1ce3469df9ee5514f88309cf5239522f55161bd251298e1f7b0d3b0664736f6c63430008090033",
  "devdoc": {
    "kind": "dev",
    "methods": {
      "approve(address,uint256)": {
        "details": "See {IERC721-approve}."
      },
      "balanceOf(address)": {
        "details": "See {IERC721-balanceOf}."
      },
      "getApproved(uint256)": {
        "details": "See {IERC721-getApproved}."
      },
      "isApprovedForAll(address,address)": {
        "details": "See {IERC721-isApprovedForAll}."
      },
      "name()": {
        "details": "See {IERC721Metadata-name}."
      },
      "owner()": {
        "details": "Returns the address of the current owner."
      },
      "ownerOf(uint256)": {
        "details": "See {IERC721-ownerOf}."
      },
      "renounceOwnership()": {
        "details": "Leaves the contract without owner. It will not be possible to call `onlyOwner` functions anymore. Can only be called by the current owner. NOTE: Renouncing ownership will leave the contract without an owner, thereby removing any functionality that is only available to the owner."
      },
      "safeTransferFrom(address,address,uint256)": {
        "details": "See {IERC721-safeTransferFrom}."
      },
      "safeTransferFrom(address,address,uint256,bytes)": {
        "details": "See {IERC721-safeTransferFrom}."
      },
      "setApprovalForAll(address,bool)": {
        "details": "See {IERC721-setApprovalForAll}."
      },
      "supportsInterface(bytes4)": {
        "details": "See {IERC165-supportsInterface}."
      },
      "symbol()": {
        "details": "See {IERC721Metadata-symbol}."
      },
      "tokenURI(uint256)": {
        "details": "See {IERC721Metadata-tokenURI}."
      },
      "transferFrom(address,address,uint256)": {
        "details": "See {IERC721-transferFrom}."
      },
      "transferOwnership(address)": {
        "details": "Transfers ownership of the contract to a new account (`newOwner`). Can only be called by the current owner."
      }
    },
    "version": 1
  },
  "userdoc": {
    "kind": "user",
    "methods": {},
    "version": 1
  },
  "storageLayout": {
    "storage": [
      {
        "astId": 138,
        "contract": "contracts/BCChars.sol:BCChars",
        "label": "_name",
        "offset": 0,
        "slot": "0",
        "type": "t_string_storage"
      },
      {
        "astId": 140,
        "contract": "contracts/BCChars.sol:BCChars",
        "label": "_symbol",
        "offset": 0,
        "slot": "1",
        "type": "t_string_storage"
      },
      {
        "astId": 144,
        "contract": "contracts/BCChars.sol:BCChars",
        "label": "_owners",
        "offset": 0,
        "slot": "2",
        "type": "t_mapping(t_uint256,t_address)"
      },
      {
        "astId": 148,
        "contract": "contracts/BCChars.sol:BCChars",
        "label": "_balances",
        "offset": 0,
        "slot": "3",
        "type": "t_mapping(t_address,t_uint256)"
      },
      {
        "astId": 152,
        "contract": "contracts/BCChars.sol:BCChars",
        "label": "_tokenApprovals",
        "offset": 0,
        "slot": "4",
        "type": "t_mapping(t_uint256,t_address)"
      },
      {
        "astId": 158,
        "contract": "contracts/BCChars.sol:BCChars",
        "label": "_operatorApprovals",
        "offset": 0,
        "slot": "5",
        "type": "t_mapping(t_address,t_mapping(t_address,t_bool))"
      },
      {
        "astId": 1126,
        "contract": "contracts/BCChars.sol:BCChars",
        "label": "_tokenURIs",
        "offset": 0,
        "slot": "6",
        "type": "t_mapping(t_uint256,t_string_storage)"
      },
      {
        "astId": 7,
        "contract": "contracts/BCChars.sol:BCChars",
        "label": "_owner",
        "offset": 0,
        "slot": "7",
        "type": "t_address"
      },
      {
        "astId": 1931,
        "contract": "contracts/BCChars.sol:BCChars",
        "label": "randSeed",
        "offset": 0,
        "slot": "8",
        "type": "t_uint256"
      },
      {
        "astId": 1938,
        "contract": "contracts/BCChars.sol:BCChars",
        "label": "mintCost",
        "offset": 0,
        "slot": "9",
        "type": "t_uint256"
      },
      {
        "astId": 1941,
        "contract": "contracts/BCChars.sol:BCChars",
        "label": "mintIsActive",
        "offset": 0,
        "slot": "10",
        "type": "t_bool"
      },
      {
        "astId": 1943,
        "contract": "contracts/BCChars.sol:BCChars",
        "label": "abilityContract",
        "offset": 1,
        "slot": "10",
        "type": "t_address"
      },
      {
        "astId": 1946,
        "contract": "contracts/BCChars.sol:BCChars",
        "label": "healthCap",
        "offset": 21,
        "slot": "10",
        "type": "t_uint8"
      },
      {
        "astId": 1949,
        "contract": "contracts/BCChars.sol:BCChars",
        "label": "carryCap",
        "offset": 22,
        "slot": "10",
        "type": "t_uint8"
      },
      {
        "astId": 1952,
        "contract": "contracts/BCChars.sol:BCChars",
        "label": "defenseCap",
        "offset": 23,
        "slot": "10",
        "type": "t_uint8"
      },
      {
        "astId": 1955,
        "contract": "contracts/BCChars.sol:BCChars",
        "label": "hackCap",
        "offset": 24,
        "slot": "10",
        "type": "t_uint8"
      },
      {
        "astId": 1958,
        "contract": "contracts/BCChars.sol:BCChars",
        "label": "breachCap",
        "offset": 25,
        "slot": "10",
        "type": "t_uint8"
      },
      {
        "astId": 1961,
        "contract": "contracts/BCChars.sol:BCChars",
        "label": "shootCap",
        "offset": 26,
        "slot": "10",
        "type": "t_uint8"
      },
      {
        "astId": 1964,
        "contract": "contracts/BCChars.sol:BCChars",
        "label": "meleeCap",
        "offset": 27,
        "slot": "10",
        "type": "t_uint8"
      },
      {
        "astId": 1967,
        "contract": "contracts/BCChars.sol:BCChars",
        "label": "maxClonesCap",
        "offset": 28,
        "slot": "10",
        "type": "t_uint8"
      },
      {
        "astId": 1970,
        "contract": "contracts/BCChars.sol:BCChars",
        "label": "abilityCap",
        "offset": 29,
        "slot": "10",
        "type": "t_uint8"
      },
      {
        "astId": 1973,
        "contract": "contracts/BCChars.sol:BCChars",
        "label": "flawCap",
        "offset": 30,
        "slot": "10",
        "type": "t_uint8"
      },
      {
        "astId": 1976,
        "contract": "contracts/BCChars.sol:BCChars",
        "label": "decantMin",
        "offset": 31,
        "slot": "10",
        "type": "t_uint8"
      },
      {
        "astId": 1979,
        "contract": "contracts/BCChars.sol:BCChars",
        "label": "decantMax",
        "offset": 0,
        "slot": "11",
        "type": "t_uint8"
      },
      {
        "astId": 2008,
        "contract": "contracts/BCChars.sol:BCChars",
        "label": "characters",
        "offset": 0,
        "slot": "12",
        "type": "t_array(t_struct(Character)2004_storage)dyn_storage"
      },
      {
        "astId": 2012,
        "contract": "contracts/BCChars.sol:BCChars",
        "label": "characterToOwner",
        "offset": 0,
        "slot": "13",
        "type": "t_mapping(t_uint256,t_address)"
      },
      {
        "astId": 2023,
        "contract": "contracts/BCChars.sol:BCChars",
        "label": "cloneTanks",
        "offset": 0,
        "slot": "14",
        "type": "t_array(t_struct(CloneTank)2019_storage)dyn_storage"
      },
      {
        "astId": 2027,
        "contract": "contracts/BCChars.sol:BCChars",
        "label": "cloneTankToOwner",
        "offset": 0,
        "slot": "15",
        "type": "t_mapping(t_uint256,t_address)"
      }
    ],
    "types": {
      "t_address": {
        "encoding": "inplace",
        "label": "address",
        "numberOfBytes": "20"
      },
      "t_array(t_struct(Character)2004_storage)dyn_storage": {
        "base": "t_struct(Character)2004_storage",
        "encoding": "dynamic_array",
        "label": "struct BCChars.Character[]",
        "numberOfBytes": "32"
      },
      "t_array(t_struct(CloneTank)2019_storage)dyn_storage": {
        "base": "t_struct(CloneTank)2019_storage",
        "encoding": "dynamic_array",
        "label": "struct BCChars.CloneTank[]",
        "numberOfBytes": "32"
      },
      "t_bool": {
        "encoding": "inplace",
        "label": "bool",
        "numberOfBytes": "1"
      },
      "t_bytes32": {
        "encoding": "inplace",
        "label": "bytes32",
        "numberOfBytes": "32"
      },
      "t_mapping(t_address,t_bool)": {
        "encoding": "mapping",
        "key": "t_address",
        "label": "mapping(address => bool)",
        "numberOfBytes": "32",
        "value": "t_bool"
      },
      "t_mapping(t_address,t_mapping(t_address,t_bool))": {
        "encoding": "mapping",
        "key": "t_address",
        "label": "mapping(address => mapping(address => bool))",
        "numberOfBytes": "32",
        "value": "t_mapping(t_address,t_bool)"
      },
      "t_mapping(t_address,t_uint256)": {
        "encoding": "mapping",
        "key": "t_address",
        "label": "mapping(address => uint256)",
        "numberOfBytes": "32",
        "value": "t_uint256"
      },
      "t_mapping(t_uint256,t_address)": {
        "encoding": "mapping",
        "key": "t_uint256",
        "label": "mapping(uint256 => address)",
        "numberOfBytes": "32",
        "value": "t_address"
      },
      "t_mapping(t_uint256,t_string_storage)": {
        "encoding": "mapping",
        "key": "t_uint256",
        "label": "mapping(uint256 => string)",
        "numberOfBytes": "32",
        "value": "t_string_storage"
      },
      "t_string_storage": {
        "encoding": "bytes",
        "label": "string",
        "numberOfBytes": "32"
      },
      "t_struct(Character)2004_storage": {
        "encoding": "inplace",
        "label": "struct BCChars.Character",
        "members": [
          {
            "astId": 1981,
            "contract": "contracts/BCChars.sol:BCChars",
            "label": "health",
            "offset": 0,
            "slot": "0",
            "type": "t_uint8"
          },
          {
            "astId": 1983,
            "contract": "contracts/BCChars.sol:BCChars",
            "label": "carry",
            "offset": 1,
            "slot": "0",
            "type": "t_uint8"
          },
          {
            "astId": 1985,
            "contract": "contracts/BCChars.sol:BCChars",
            "label": "defense",
            "offset": 2,
            "slot": "0",
            "type": "t_uint8"
          },
          {
            "astId": 1987,
            "contract": "contracts/BCChars.sol:BCChars",
            "label": "hack",
            "offset": 3,
            "slot": "0",
            "type": "t_uint8"
          },
          {
            "astId": 1989,
            "contract": "contracts/BCChars.sol:BCChars",
            "label": "breach",
            "offset": 4,
            "slot": "0",
            "type": "t_uint8"
          },
          {
            "astId": 1991,
            "contract": "contracts/BCChars.sol:BCChars",
            "label": "shoot",
            "offset": 5,
            "slot": "0",
            "type": "t_uint8"
          },
          {
            "astId": 1993,
            "contract": "contracts/BCChars.sol:BCChars",
            "label": "melee",
            "offset": 6,
            "slot": "0",
            "type": "t_uint8"
          },
          {
            "astId": 1995,
            "contract": "contracts/BCChars.sol:BCChars",
            "label": "cloneNumber",
            "offset": 7,
            "slot": "0",
            "type": "t_uint8"
          },
          {
            "astId": 1997,
            "contract": "contracts/BCChars.sol:BCChars",
            "label": "maxClones",
            "offset": 8,
            "slot": "0",
            "type": "t_uint8"
          },
          {
            "astId": 1999,
            "contract": "contracts/BCChars.sol:BCChars",
            "label": "ability",
            "offset": 9,
            "slot": "0",
            "type": "t_uint8"
          },
          {
            "astId": 2001,
            "contract": "contracts/BCChars.sol:BCChars",
            "label": "flaw",
            "offset": 10,
            "slot": "0",
            "type": "t_uint8"
          },
          {
            "astId": 2003,
            "contract": "contracts/BCChars.sol:BCChars",
            "label": "dead",
            "offset": 11,
            "slot": "0",
            "type": "t_bool"
          }
        ],
        "numberOfBytes": "32"
      },
      "t_struct(CloneTank)2019_storage": {
        "encoding": "inplace",
        "label": "struct BCChars.CloneTank",
        "members": [
          {
            "astId": 2014,
            "contract": "contracts/BCChars.sol:BCChars",
            "label": "hashBase",
            "offset": 0,
            "slot": "0",
            "type": "t_bytes32"
          },
          {
            "astId": 2016,
            "contract": "contracts/BCChars.sol:BCChars",
            "label": "decantBlockNumber",
            "offset": 0,
            "slot": "1",
            "type": "t_uint256"
          },
          {
            "astId": 2018,
            "contract": "contracts/BCChars.sol:BCChars",
            "label": "decanted",
            "offset": 0,
            "slot": "2",
            "type": "t_bool"
          }
        ],
        "numberOfBytes": "96"
      },
      "t_uint256": {
        "encoding": "inplace",
        "label": "uint256",
        "numberOfBytes": "32"
      },
      "t_uint8": {
        "encoding": "inplace",
        "label": "uint8",
        "numberOfBytes": "1"
      }
    }
  }
}