{
  "address": "0xA7965322f46f0D2d8c2BE57464c059876f1DB1B7",
  "abi": [
    {
      "inputs": [],
      "stateMutability": "nonpayable",
      "type": "constructor"
    },
    {
      "anonymous": false,
      "inputs": [
        {
          "indexed": true,
          "internalType": "address",
          "name": "owner",
          "type": "address"
        },
        {
          "indexed": true,
          "internalType": "address",
          "name": "approved",
          "type": "address"
        },
        {
          "indexed": true,
          "internalType": "uint256",
          "name": "tokenId",
          "type": "uint256"
        }
      ],
      "name": "Approval",
      "type": "event"
    },
    {
      "anonymous": false,
      "inputs": [
        {
          "indexed": true,
          "internalType": "address",
          "name": "owner",
          "type": "address"
        },
        {
          "indexed": true,
          "internalType": "address",
          "name": "operator",
          "type": "address"
        },
        {
          "indexed": false,
          "internalType": "bool",
          "name": "approved",
          "type": "bool"
        }
      ],
      "name": "ApprovalForAll",
      "type": "event"
    },
    {
      "anonymous": false,
      "inputs": [
        {
          "indexed": true,
          "internalType": "address",
          "name": "previousOwner",
          "type": "address"
        },
        {
          "indexed": true,
          "internalType": "address",
          "name": "newOwner",
          "type": "address"
        }
      ],
      "name": "OwnershipTransferred",
      "type": "event"
    },
    {
      "anonymous": false,
      "inputs": [
        {
          "indexed": true,
          "internalType": "address",
          "name": "from",
          "type": "address"
        },
        {
          "indexed": true,
          "internalType": "address",
          "name": "to",
          "type": "address"
        },
        {
          "indexed": true,
          "internalType": "uint256",
          "name": "tokenId",
          "type": "uint256"
        }
      ],
      "name": "Transfer",
      "type": "event"
    },
    {
      "inputs": [],
      "name": "EventContract",
      "outputs": [
        {
          "internalType": "address",
          "name": "",
          "type": "address"
        }
      ],
      "stateMutability": "view",
      "type": "function"
    },
    {
      "inputs": [],
      "name": "_initializeDefaultRooms",
      "outputs": [],
      "stateMutability": "nonpayable",
      "type": "function"
    },
    {
      "inputs": [
        {
          "internalType": "address",
          "name": "to",
          "type": "address"
        },
        {
          "internalType": "uint256",
          "name": "tokenId",
          "type": "uint256"
        }
      ],
      "name": "approve",
      "outputs": [],
      "stateMutability": "nonpayable",
      "type": "function"
    },
    {
      "inputs": [
        {
          "internalType": "address",
          "name": "owner",
          "type": "address"
        }
      ],
      "name": "balanceOf",
      "outputs": [
        {
          "internalType": "uint256",
          "name": "",
          "type": "uint256"
        }
      ],
      "stateMutability": "view",
      "type": "function"
    },
    {
      "inputs": [
        {
          "internalType": "uint256",
          "name": "tokenId",
          "type": "uint256"
        }
      ],
      "name": "getApproved",
      "outputs": [
        {
          "internalType": "address",
          "name": "",
          "type": "address"
        }
      ],
      "stateMutability": "view",
      "type": "function"
    },
    {
      "inputs": [
        {
          "internalType": "address",
          "name": "owner",
          "type": "address"
        },
        {
          "internalType": "address",
          "name": "operator",
          "type": "address"
        }
      ],
      "name": "isApprovedForAll",
      "outputs": [
        {
          "internalType": "bool",
          "name": "",
          "type": "bool"
        }
      ],
      "stateMutability": "view",
      "type": "function"
    },
    {
      "inputs": [],
      "name": "mintCost",
      "outputs": [
        {
          "internalType": "uint256",
          "name": "",
          "type": "uint256"
        }
      ],
      "stateMutability": "view",
      "type": "function"
    },
    {
      "inputs": [],
      "name": "mintIsActive",
      "outputs": [
        {
          "internalType": "bool",
          "name": "",
          "type": "bool"
        }
      ],
      "stateMutability": "view",
      "type": "function"
    },
    {
      "inputs": [],
      "name": "name",
      "outputs": [
        {
          "internalType": "string",
          "name": "",
          "type": "string"
        }
      ],
      "stateMutability": "view",
      "type": "function"
    },
    {
      "inputs": [],
      "name": "owner",
      "outputs": [
        {
          "internalType": "address",
          "name": "",
          "type": "address"
        }
      ],
      "stateMutability": "view",
      "type": "function"
    },
    {
      "inputs": [
        {
          "internalType": "uint256",
          "name": "tokenId",
          "type": "uint256"
        }
      ],
      "name": "ownerOf",
      "outputs": [
        {
          "internalType": "address",
          "name": "",
          "type": "address"
        }
      ],
      "stateMutability": "view",
      "type": "function"
    },
    {
      "inputs": [
        {
          "internalType": "uint256",
          "name": "",
          "type": "uint256"
        }
      ],
      "name": "publicRoomTokens",
      "outputs": [
        {
          "internalType": "uint256",
          "name": "",
          "type": "uint256"
        }
      ],
      "stateMutability": "view",
      "type": "function"
    },
    {
      "inputs": [],
      "name": "renounceOwnership",
      "outputs": [],
      "stateMutability": "nonpayable",
      "type": "function"
    },
    {
      "inputs": [
        {
          "internalType": "uint256",
          "name": "",
          "type": "uint256"
        }
      ],
      "name": "rooms",
      "outputs": [
        {
          "internalType": "string",
          "name": "name",
          "type": "string"
        },
        {
          "internalType": "string",
          "name": "artLink",
          "type": "string"
        },
        {
          "internalType": "enum BCRoomEvents.BCEventType",
          "name": "eventType",
          "type": "uint8"
        },
        {
          "internalType": "uint8",
          "name": "numDoors",
          "type": "uint8"
        },
        {
          "internalType": "uint8",
          "name": "totalDoorStrength",
          "type": "uint8"
        },
        {
          "internalType": "uint8",
          "name": "numItems",
          "type": "uint8"
        },
        {
          "internalType": "uint8",
          "name": "numData",
          "type": "uint8"
        },
        {
          "internalType": "uint8",
          "name": "numWindows",
          "type": "uint8"
        },
        {
          "internalType": "bool",
          "name": "hasVent",
          "type": "bool"
        },
        {
          "internalType": "bool",
          "name": "hasHazard",
          "type": "bool"
        },
        {
          "internalType": "bool",
          "name": "signatureDetected",
          "type": "bool"
        },
        {
          "internalType": "uint256",
          "name": "eventNum",
          "type": "uint256"
        }
      ],
      "stateMutability": "view",
      "type": "function"
    },
    {
      "inputs": [
        {
          "internalType": "address",
          "name": "from",
          "type": "address"
        },
        {
          "internalType": "address",
          "name": "to",
          "type": "address"
        },
        {
          "internalType": "uint256",
          "name": "tokenId",
          "type": "uint256"
        }
      ],
      "name": "safeTransferFrom",
      "outputs": [],
      "stateMutability": "nonpayable",
      "type": "function"
    },
    {
      "inputs": [
        {
          "internalType": "address",
          "name": "from",
          "type": "address"
        },
        {
          "internalType": "address",
          "name": "to",
          "type": "address"
        },
        {
          "internalType": "uint256",
          "name": "tokenId",
          "type": "uint256"
        },
        {
          "internalType": "bytes",
          "name": "data",
          "type": "bytes"
        }
      ],
      "name": "safeTransferFrom",
      "outputs": [],
      "stateMutability": "nonpayable",
      "type": "function"
    },
    {
      "inputs": [
        {
          "internalType": "address",
          "name": "operator",
          "type": "address"
        },
        {
          "internalType": "bool",
          "name": "approved",
          "type": "bool"
        }
      ],
      "name": "setApprovalForAll",
      "outputs": [],
      "stateMutability": "nonpayable",
      "type": "function"
    },
    {
      "inputs": [
        {
          "internalType": "bytes4",
          "name": "interfaceId",
          "type": "bytes4"
        }
      ],
      "name": "supportsInterface",
      "outputs": [
        {
          "internalType": "bool",
          "name": "",
          "type": "bool"
        }
      ],
      "stateMutability": "view",
      "type": "function"
    },
    {
      "inputs": [],
      "name": "symbol",
      "outputs": [
        {
          "internalType": "string",
          "name": "",
          "type": "string"
        }
      ],
      "stateMutability": "view",
      "type": "function"
    },
    {
      "inputs": [
        {
          "internalType": "uint256",
          "name": "tokenId",
          "type": "uint256"
        }
      ],
      "name": "tokenURI",
      "outputs": [
        {
          "internalType": "string",
          "name": "",
          "type": "string"
        }
      ],
      "stateMutability": "view",
      "type": "function"
    },
    {
      "inputs": [
        {
          "internalType": "address",
          "name": "from",
          "type": "address"
        },
        {
          "internalType": "address",
          "name": "to",
          "type": "address"
        },
        {
          "internalType": "uint256",
          "name": "tokenId",
          "type": "uint256"
        }
      ],
      "name": "transferFrom",
      "outputs": [],
      "stateMutability": "nonpayable",
      "type": "function"
    },
    {
      "inputs": [
        {
          "internalType": "address",
          "name": "newOwner",
          "type": "address"
        }
      ],
      "name": "transferOwnership",
      "outputs": [],
      "stateMutability": "nonpayable",
      "type": "function"
    }
  ],
  "transactionHash": "0xe620fd1371dbbf0a97b06a6bc5d4868c2836e7cf21da9978f3720096cd06c57c",
  "args": [],
  "numDeployments": 1,
  "solcInputHash": "8c3fdbf1f7be870fcabf273e724fe95b",
  "bytecode": "0x6080604052670de0b6b3a76400006007556000600860006101000a81548160ff0219169083151502179055503480156200003857600080fd5b506040518060400160405280601181526020017f426c61636b20436f6d657420526f6f6d730000000000000000000000000000008152506040518060400160405280600481526020017f42435253000000000000000000000000000000000000000000000000000000008152508160009080519060200190620000bd929190620001cd565b508060019080519060200190620000d6929190620001cd565b505050620000f9620000ed620000ff60201b60201c565b6200010760201b60201c565b620002e2565b600033905090565b6000600660009054906101000a900473ffffffffffffffffffffffffffffffffffffffff16905081600660006101000a81548173ffffffffffffffffffffffffffffffffffffffff021916908373ffffffffffffffffffffffffffffffffffffffff1602179055508173ffffffffffffffffffffffffffffffffffffffff168173ffffffffffffffffffffffffffffffffffffffff167f8be0079c531659141344cd1fd0a4f28419497f9722a3daafe3b4186f6b6457e060405160405180910390a35050565b828054620001db90620002ac565b90600052602060002090601f016020900481019282620001ff57600085556200024b565b82601f106200021a57805160ff19168380011785556200024b565b828001600101855582156200024b579182015b828111156200024a5782518255916020019190600101906200022d565b5b5090506200025a91906200025e565b5090565b5b80821115620002795760008160009055506001016200025f565b5090565b7f4e487b7100000000000000000000000000000000000000000000000000000000600052602260045260246000fd5b60006002820490506001821680620002c557607f821691505b60208210811415620002dc57620002db6200027d565b5b50919050565b61308580620002f26000396000f3fe608060405234801561001057600080fd5b50600436106101425760003560e01c806370a08231116100b8578063a22cb4651161007c578063a22cb46514610370578063b88d4fde1461038c578063bdb4b848146103a8578063c87b56dd146103c6578063e985e9c5146103f6578063f2fde38b1461042657610142565b806370a08231146102dc578063715018a61461030c5780638da5cb5b1461031657806394b004ea1461033457806395d89b411461035257610142565b806323b872dd1161010a57806323b872dd1461021c57806342842e0e14610238578063471a4294146102545780634e2aa9a41461027257806355f0b379146102a25780636352211e146102ac57610142565b806301ffc9a71461014757806306fdde0314610177578063081812fc14610195578063095ea7b3146101c55780631bae0ac8146101e1575b600080fd5b610161600480360381019061015c9190611f8b565b610442565b60405161016e9190611fd3565b60405180910390f35b61017f610524565b60405161018c9190612087565b60405180910390f35b6101af60048036038101906101aa91906120df565b6105b6565b6040516101bc919061214d565b60405180910390f35b6101df60048036038101906101da9190612194565b6105fc565b005b6101fb60048036038101906101f691906120df565b610714565b6040516102139c9b9a99989796959493929190612276565b60405180910390f35b6102366004803603810190610231919061233e565b610909565b005b610252600480360381019061024d919061233e565b610969565b005b61025c610989565b6040516102699190611fd3565b60405180910390f35b61028c600480360381019061028791906120df565b61099c565b6040516102999190612391565b60405180910390f35b6102aa6109c0565b005b6102c660048036038101906102c191906120df565b610a51565b6040516102d3919061214d565b60405180910390f35b6102f660048036038101906102f191906123ac565b610b03565b6040516103039190612391565b60405180910390f35b610314610bbb565b005b61031e610bcf565b60405161032b919061214d565b60405180910390f35b61033c610bf9565b604051610349919061214d565b60405180910390f35b61035a610c1f565b6040516103679190612087565b60405180910390f35b61038a60048036038101906103859190612405565b610cb1565b005b6103a660048036038101906103a1919061257a565b610cc7565b005b6103b0610d29565b6040516103bd9190612391565b60405180910390f35b6103e060048036038101906103db91906120df565b610d2f565b6040516103ed9190612087565b60405180910390f35b610410600480360381019061040b91906125fd565b610d97565b60405161041d9190611fd3565b60405180910390f35b610440600480360381019061043b91906123ac565b610e2b565b005b60007f80ac58cd000000000000000000000000000000000000000000000000000000007bffffffffffffffffffffffffffffffffffffffffffffffffffffffff1916827bffffffffffffffffffffffffffffffffffffffffffffffffffffffff1916148061050d57507f5b5e139f000000000000000000000000000000000000000000000000000000007bffffffffffffffffffffffffffffffffffffffffffffffffffffffff1916827bffffffffffffffffffffffffffffffffffffffffffffffffffffffff1916145b8061051d575061051c82610eaf565b5b9050919050565b6060600080546105339061266c565b80601f016020809104026020016040519081016040528092919081815260200182805461055f9061266c565b80156105ac5780601f10610581576101008083540402835291602001916105ac565b820191906000526020600020905b81548152906001019060200180831161058f57829003601f168201915b5050505050905090565b60006105c182610f19565b6004600083815260200190815260200160002060009054906101000a900473ffffffffffffffffffffffffffffffffffffffff169050919050565b600061060782610a51565b90508073ffffffffffffffffffffffffffffffffffffffff168373ffffffffffffffffffffffffffffffffffffffff161415610678576040517f08c379a000000000000000000000000000000000000000000000000000000000815260040161066f90612710565b60405180910390fd5b8073ffffffffffffffffffffffffffffffffffffffff16610697610f64565b73ffffffffffffffffffffffffffffffffffffffff1614806106c657506106c5816106c0610f64565b610d97565b5b610705576040517f08c379a00000000000000000000000000000000000000000000000000000000081526004016106fc906127a2565b60405180910390fd5b61070f8383610f6c565b505050565b6009818154811061072457600080fd5b90600052602060002090600402016000915090508060000180546107479061266c565b80601f01602080910402602001604051908101604052809291908181526020018280546107739061266c565b80156107c05780601f10610795576101008083540402835291602001916107c0565b820191906000526020600020905b8154815290600101906020018083116107a357829003601f168201915b5050505050908060010180546107d59061266c565b80601f01602080910402602001604051908101604052809291908181526020018280546108019061266c565b801561084e5780601f106108235761010080835404028352916020019161084e565b820191906000526020600020905b81548152906001019060200180831161083157829003601f168201915b5050505050908060020160009054906101000a900460ff16908060020160019054906101000a900460ff16908060020160029054906101000a900460ff16908060020160039054906101000a900460ff16908060020160049054906101000a900460ff16908060020160059054906101000a900460ff16908060020160069054906101000a900460ff16908060020160079054906101000a900460ff16908060020160089054906101000a900460ff1690806003015490508c565b61091a610914610f64565b82611025565b610959576040517f08c379a000000000000000000000000000000000000000000000000000000000815260040161095090612834565b60405180910390fd5b6109648383836110ba565b505050565b61098483838360405180602001604052806000815250610cc7565b505050565b600860009054906101000a900460ff1681565b600a81815481106109ac57600080fd5b906000526020600020016000915090505481565b6109c8611321565b610a4f336040518060400160405280600f81526020017f52656163746f7220436f6e74726f6c00000000000000000000000000000000008152506040518060400160405280601f81526020017f68747470733a2f2f692e696d6775722e636f6d2f3976383458376d2e706e670081525060038060036000600160006001600080600061139f565b565b6000806002600084815260200190815260200160002060009054906101000a900473ffffffffffffffffffffffffffffffffffffffff169050600073ffffffffffffffffffffffffffffffffffffffff168173ffffffffffffffffffffffffffffffffffffffff161415610afa576040517f08c379a0000000000000000000000000000000000000000000000000000000008152600401610af1906128a0565b60405180910390fd5b80915050919050565b60008073ffffffffffffffffffffffffffffffffffffffff168273ffffffffffffffffffffffffffffffffffffffff161415610b74576040517f08c379a0000000000000000000000000000000000000000000000000000000008152600401610b6b90612932565b60405180910390fd5b600360008373ffffffffffffffffffffffffffffffffffffffff1673ffffffffffffffffffffffffffffffffffffffff168152602001908152602001600020549050919050565b610bc3611321565b610bcd60006115f2565b565b6000600660009054906101000a900473ffffffffffffffffffffffffffffffffffffffff16905090565b600860019054906101000a900473ffffffffffffffffffffffffffffffffffffffff1681565b606060018054610c2e9061266c565b80601f0160208091040260200160405190810160405280929190818152602001828054610c5a9061266c565b8015610ca75780601f10610c7c57610100808354040283529160200191610ca7565b820191906000526020600020905b815481529060010190602001808311610c8a57829003601f168201915b5050505050905090565b610cc3610cbc610f64565b83836116b8565b5050565b610cd8610cd2610f64565b83611025565b610d17576040517f08c379a0000000000000000000000000000000000000000000000000000000008152600401610d0e90612834565b60405180910390fd5b610d2384848484611825565b50505050565b60075481565b6060610d3a82610f19565b6000610d44611881565b90506000815111610d645760405180602001604052806000815250610d8f565b80610d6e84611898565b604051602001610d7f92919061298e565b6040516020818303038152906040525b915050919050565b6000600560008473ffffffffffffffffffffffffffffffffffffffff1673ffffffffffffffffffffffffffffffffffffffff16815260200190815260200160002060008373ffffffffffffffffffffffffffffffffffffffff1673ffffffffffffffffffffffffffffffffffffffff16815260200190815260200160002060009054906101000a900460ff16905092915050565b610e33611321565b600073ffffffffffffffffffffffffffffffffffffffff168173ffffffffffffffffffffffffffffffffffffffff161415610ea3576040517f08c379a0000000000000000000000000000000000000000000000000000000008152600401610e9a90612a24565b60405180910390fd5b610eac816115f2565b50565b60007f01ffc9a7000000000000000000000000000000000000000000000000000000007bffffffffffffffffffffffffffffffffffffffffffffffffffffffff1916827bffffffffffffffffffffffffffffffffffffffffffffffffffffffff1916149050919050565b610f22816119f9565b610f61576040517f08c379a0000000000000000000000000000000000000000000000000000000008152600401610f58906128a0565b60405180910390fd5b50565b600033905090565b816004600083815260200190815260200160002060006101000a81548173ffffffffffffffffffffffffffffffffffffffff021916908373ffffffffffffffffffffffffffffffffffffffff160217905550808273ffffffffffffffffffffffffffffffffffffffff16610fdf83610a51565b73ffffffffffffffffffffffffffffffffffffffff167f8c5be1e5ebec7d5bd14f71427d1e84f3dd0314c0f7b2291e5b200ac8c7c3b92560405160405180910390a45050565b60008061103183610a51565b90508073ffffffffffffffffffffffffffffffffffffffff168473ffffffffffffffffffffffffffffffffffffffff16148061107357506110728185610d97565b5b806110b157508373ffffffffffffffffffffffffffffffffffffffff16611099846105b6565b73ffffffffffffffffffffffffffffffffffffffff16145b91505092915050565b8273ffffffffffffffffffffffffffffffffffffffff166110da82610a51565b73ffffffffffffffffffffffffffffffffffffffff1614611130576040517f08c379a000000000000000000000000000000000000000000000000000000000815260040161112790612ab6565b60405180910390fd5b600073ffffffffffffffffffffffffffffffffffffffff168273ffffffffffffffffffffffffffffffffffffffff1614156111a0576040517f08c379a000000000000000000000000000000000000000000000000000000000815260040161119790612b48565b60405180910390fd5b6111ab838383611a65565b6111b6600082610f6c565b6001600360008573ffffffffffffffffffffffffffffffffffffffff1673ffffffffffffffffffffffffffffffffffffffff16815260200190815260200160002060008282546112069190612b97565b925050819055506001600360008473ffffffffffffffffffffffffffffffffffffffff1673ffffffffffffffffffffffffffffffffffffffff168152602001908152602001600020600082825461125d9190612bcb565b92505081905550816002600083815260200190815260200160002060006101000a81548173ffffffffffffffffffffffffffffffffffffffff021916908373ffffffffffffffffffffffffffffffffffffffff160217905550808273ffffffffffffffffffffffffffffffffffffffff168473ffffffffffffffffffffffffffffffffffffffff167fddf252ad1be2c89b69c2b068fc378daa952ba7f163c4a11628f55a4df523b3ef60405160405180910390a461131c838383611a6a565b505050565b611329610f64565b73ffffffffffffffffffffffffffffffffffffffff16611347610bcf565b73ffffffffffffffffffffffffffffffffffffffff161461139d576040517f08c379a000000000000000000000000000000000000000000000000000000000815260040161139490612c6d565b60405180910390fd5b565b60096040518061018001604052808e81526020018d81526020018c60048111156113cc576113cb6121d4565b5b81526020018b60ff1681526020018a60ff1681526020018960ff1681526020018860ff1681526020018760ff168152602001861515815260200185151581526020018415158152602001838152509080600181540180825580915050600190039060005260206000209060040201600090919091909150600082015181600001908051906020019061145f929190611e7c565b50602082015181600101908051906020019061147c929190611e7c565b5060408201518160020160006101000a81548160ff021916908360048111156114a8576114a76121d4565b5b021790555060608201518160020160016101000a81548160ff021916908360ff16021790555060808201518160020160026101000a81548160ff021916908360ff16021790555060a08201518160020160036101000a81548160ff021916908360ff16021790555060c08201518160020160046101000a81548160ff021916908360ff16021790555060e08201518160020160056101000a81548160ff021916908360ff1602179055506101008201518160020160066101000a81548160ff0219169083151502179055506101208201518160020160076101000a81548160ff0219169083151502179055506101408201518160020160086101000a81548160ff02191690831515021790555061016082015181600301555050600060016009805490506115d69190612b97565b90506115e28e82611a6f565b5050505050505050505050505050565b6000600660009054906101000a900473ffffffffffffffffffffffffffffffffffffffff16905081600660006101000a81548173ffffffffffffffffffffffffffffffffffffffff021916908373ffffffffffffffffffffffffffffffffffffffff1602179055508173ffffffffffffffffffffffffffffffffffffffff168173ffffffffffffffffffffffffffffffffffffffff167f8be0079c531659141344cd1fd0a4f28419497f9722a3daafe3b4186f6b6457e060405160405180910390a35050565b8173ffffffffffffffffffffffffffffffffffffffff168373ffffffffffffffffffffffffffffffffffffffff161415611727576040517f08c379a000000000000000000000000000000000000000000000000000000000815260040161171e90612cd9565b60405180910390fd5b80600560008573ffffffffffffffffffffffffffffffffffffffff1673ffffffffffffffffffffffffffffffffffffffff16815260200190815260200160002060008473ffffffffffffffffffffffffffffffffffffffff1673ffffffffffffffffffffffffffffffffffffffff16815260200190815260200160002060006101000a81548160ff0219169083151502179055508173ffffffffffffffffffffffffffffffffffffffff168373ffffffffffffffffffffffffffffffffffffffff167f17307eab39ab6107e8899845ad3d59bd9653f200f220920489ca2b5937696c31836040516118189190611fd3565b60405180910390a3505050565b6118308484846110ba565b61183c84848484611a8d565b61187b576040517f08c379a000000000000000000000000000000000000000000000000000000000815260040161187290612d6b565b60405180910390fd5b50505050565b606060405180602001604052806000815250905090565b606060008214156118e0576040518060400160405280600181526020017f300000000000000000000000000000000000000000000000000000000000000081525090506119f4565b600082905060005b600082146119125780806118fb90612d8b565b915050600a8261190b9190612e03565b91506118e8565b60008167ffffffffffffffff81111561192e5761192d61244f565b5b6040519080825280601f01601f1916602001820160405280156119605781602001600182028036833780820191505090505b5090505b600085146119ed576001826119799190612b97565b9150600a856119889190612e34565b60306119949190612bcb565b60f81b8183815181106119aa576119a9612e65565b5b60200101907effffffffffffffffffffffffffffffffffffffffffffffffffffffffffffff1916908160001a905350600a856119e69190612e03565b9450611964565b8093505050505b919050565b60008073ffffffffffffffffffffffffffffffffffffffff166002600084815260200190815260200160002060009054906101000a900473ffffffffffffffffffffffffffffffffffffffff1673ffffffffffffffffffffffffffffffffffffffff1614159050919050565b505050565b505050565b611a89828260405180602001604052806000815250611c24565b5050565b6000611aae8473ffffffffffffffffffffffffffffffffffffffff16611c7f565b15611c17578373ffffffffffffffffffffffffffffffffffffffff1663150b7a02611ad7610f64565b8786866040518563ffffffff1660e01b8152600401611af99493929190612ee9565b602060405180830381600087803b158015611b1357600080fd5b505af1925050508015611b4457506040513d601f19601f82011682018060405250810190611b419190612f4a565b60015b611bc7573d8060008114611b74576040519150601f19603f3d011682016040523d82523d6000602084013e611b79565b606091505b50600081511415611bbf576040517f08c379a0000000000000000000000000000000000000000000000000000000008152600401611bb690612d6b565b60405180910390fd5b805181602001fd5b63150b7a0260e01b7bffffffffffffffffffffffffffffffffffffffffffffffffffffffff1916817bffffffffffffffffffffffffffffffffffffffffffffffffffffffff191614915050611c1c565b600190505b949350505050565b611c2e8383611ca2565b611c3b6000848484611a8d565b611c7a576040517f08c379a0000000000000000000000000000000000000000000000000000000008152600401611c7190612d6b565b60405180910390fd5b505050565b6000808273ffffffffffffffffffffffffffffffffffffffff163b119050919050565b600073ffffffffffffffffffffffffffffffffffffffff168273ffffffffffffffffffffffffffffffffffffffff161415611d12576040517f08c379a0000000000000000000000000000000000000000000000000000000008152600401611d0990612fc3565b60405180910390fd5b611d1b816119f9565b15611d5b576040517f08c379a0000000000000000000000000000000000000000000000000000000008152600401611d529061302f565b60405180910390fd5b611d6760008383611a65565b6001600360008473ffffffffffffffffffffffffffffffffffffffff1673ffffffffffffffffffffffffffffffffffffffff1681526020019081526020016000206000828254611db79190612bcb565b92505081905550816002600083815260200190815260200160002060006101000a81548173ffffffffffffffffffffffffffffffffffffffff021916908373ffffffffffffffffffffffffffffffffffffffff160217905550808273ffffffffffffffffffffffffffffffffffffffff16600073ffffffffffffffffffffffffffffffffffffffff167fddf252ad1be2c89b69c2b068fc378daa952ba7f163c4a11628f55a4df523b3ef60405160405180910390a4611e7860008383611a6a565b5050565b828054611e889061266c565b90600052602060002090601f016020900481019282611eaa5760008555611ef1565b82601f10611ec357805160ff1916838001178555611ef1565b82800160010185558215611ef1579182015b82811115611ef0578251825591602001919060010190611ed5565b5b509050611efe9190611f02565b5090565b5b80821115611f1b576000816000905550600101611f03565b5090565b6000604051905090565b600080fd5b600080fd5b60007fffffffff0000000000000000000000000000000000000000000000000000000082169050919050565b611f6881611f33565b8114611f7357600080fd5b50565b600081359050611f8581611f5f565b92915050565b600060208284031215611fa157611fa0611f29565b5b6000611faf84828501611f76565b91505092915050565b60008115159050919050565b611fcd81611fb8565b82525050565b6000602082019050611fe86000830184611fc4565b92915050565b600081519050919050565b600082825260208201905092915050565b60005b8381101561202857808201518184015260208101905061200d565b83811115612037576000848401525b50505050565b6000601f19601f8301169050919050565b600061205982611fee565b6120638185611ff9565b935061207381856020860161200a565b61207c8161203d565b840191505092915050565b600060208201905081810360008301526120a1818461204e565b905092915050565b6000819050919050565b6120bc816120a9565b81146120c757600080fd5b50565b6000813590506120d9816120b3565b92915050565b6000602082840312156120f5576120f4611f29565b5b6000612103848285016120ca565b91505092915050565b600073ffffffffffffffffffffffffffffffffffffffff82169050919050565b60006121378261210c565b9050919050565b6121478161212c565b82525050565b6000602082019050612162600083018461213e565b92915050565b6121718161212c565b811461217c57600080fd5b50565b60008135905061218e81612168565b92915050565b600080604083850312156121ab576121aa611f29565b5b60006121b98582860161217f565b92505060206121ca858286016120ca565b9150509250929050565b7f4e487b7100000000000000000000000000000000000000000000000000000000600052602160045260246000fd5b60058110612214576122136121d4565b5b50565b600081905061222582612203565b919050565b600061223582612217565b9050919050565b6122458161222a565b82525050565b600060ff82169050919050565b6122618161224b565b82525050565b612270816120a9565b82525050565b6000610180820190508181036000830152612291818f61204e565b905081810360208301526122a5818e61204e565b90506122b4604083018d61223c565b6122c1606083018c612258565b6122ce608083018b612258565b6122db60a083018a612258565b6122e860c0830189612258565b6122f560e0830188612258565b612303610100830187611fc4565b612311610120830186611fc4565b61231f610140830185611fc4565b61232d610160830184612267565b9d9c50505050505050505050505050565b60008060006060848603121561235757612356611f29565b5b60006123658682870161217f565b93505060206123768682870161217f565b9250506040612387868287016120ca565b9150509250925092565b60006020820190506123a66000830184612267565b92915050565b6000602082840312156123c2576123c1611f29565b5b60006123d08482850161217f565b91505092915050565b6123e281611fb8565b81146123ed57600080fd5b50565b6000813590506123ff816123d9565b92915050565b6000806040838503121561241c5761241b611f29565b5b600061242a8582860161217f565b925050602061243b858286016123f0565b9150509250929050565b600080fd5b600080fd5b7f4e487b7100000000000000000000000000000000000000000000000000000000600052604160045260246000fd5b6124878261203d565b810181811067ffffffffffffffff821117156124a6576124a561244f565b5b80604052505050565b60006124b9611f1f565b90506124c5828261247e565b919050565b600067ffffffffffffffff8211156124e5576124e461244f565b5b6124ee8261203d565b9050602081019050919050565b82818337600083830152505050565b600061251d612518846124ca565b6124af565b9050828152602081018484840111156125395761253861244a565b5b6125448482856124fb565b509392505050565b600082601f83011261256157612560612445565b5b813561257184826020860161250a565b91505092915050565b6000806000806080858703121561259457612593611f29565b5b60006125a28782880161217f565b94505060206125b38782880161217f565b93505060406125c4878288016120ca565b925050606085013567ffffffffffffffff8111156125e5576125e4611f2e565b5b6125f18782880161254c565b91505092959194509250565b6000806040838503121561261457612613611f29565b5b60006126228582860161217f565b92505060206126338582860161217f565b9150509250929050565b7f4e487b7100000000000000000000000000000000000000000000000000000000600052602260045260246000fd5b6000600282049050600182168061268457607f821691505b602082108114156126985761269761263d565b5b50919050565b7f4552433732313a20617070726f76616c20746f2063757272656e74206f776e6560008201527f7200000000000000000000000000000000000000000000000000000000000000602082015250565b60006126fa602183611ff9565b91506127058261269e565b604082019050919050565b60006020820190508181036000830152612729816126ed565b9050919050565b7f4552433732313a20617070726f76652063616c6c6572206973206e6f7420746f60008201527f6b656e206f776e6572206e6f7220617070726f76656420666f7220616c6c0000602082015250565b600061278c603e83611ff9565b915061279782612730565b604082019050919050565b600060208201905081810360008301526127bb8161277f565b9050919050565b7f4552433732313a2063616c6c6572206973206e6f7420746f6b656e206f776e6560008201527f72206e6f7220617070726f766564000000000000000000000000000000000000602082015250565b600061281e602e83611ff9565b9150612829826127c2565b604082019050919050565b6000602082019050818103600083015261284d81612811565b9050919050565b7f4552433732313a20696e76616c696420746f6b656e2049440000000000000000600082015250565b600061288a601883611ff9565b915061289582612854565b602082019050919050565b600060208201905081810360008301526128b98161287d565b9050919050565b7f4552433732313a2061646472657373207a65726f206973206e6f74206120766160008201527f6c6964206f776e65720000000000000000000000000000000000000000000000602082015250565b600061291c602983611ff9565b9150612927826128c0565b604082019050919050565b6000602082019050818103600083015261294b8161290f565b9050919050565b600081905092915050565b600061296882611fee565b6129728185612952565b935061298281856020860161200a565b80840191505092915050565b600061299a828561295d565b91506129a6828461295d565b91508190509392505050565b7f4f776e61626c653a206e6577206f776e657220697320746865207a65726f206160008201527f6464726573730000000000000000000000000000000000000000000000000000602082015250565b6000612a0e602683611ff9565b9150612a19826129b2565b604082019050919050565b60006020820190508181036000830152612a3d81612a01565b9050919050565b7f4552433732313a207472616e736665722066726f6d20696e636f72726563742060008201527f6f776e6572000000000000000000000000000000000000000000000000000000602082015250565b6000612aa0602583611ff9565b9150612aab82612a44565b604082019050919050565b60006020820190508181036000830152612acf81612a93565b9050919050565b7f4552433732313a207472616e7366657220746f20746865207a65726f2061646460008201527f7265737300000000000000000000000000000000000000000000000000000000602082015250565b6000612b32602483611ff9565b9150612b3d82612ad6565b604082019050919050565b60006020820190508181036000830152612b6181612b25565b9050919050565b7f4e487b7100000000000000000000000000000000000000000000000000000000600052601160045260246000fd5b6000612ba2826120a9565b9150612bad836120a9565b925082821015612bc057612bbf612b68565b5b828203905092915050565b6000612bd6826120a9565b9150612be1836120a9565b9250827fffffffffffffffffffffffffffffffffffffffffffffffffffffffffffffffff03821115612c1657612c15612b68565b5b828201905092915050565b7f4f776e61626c653a2063616c6c6572206973206e6f7420746865206f776e6572600082015250565b6000612c57602083611ff9565b9150612c6282612c21565b602082019050919050565b60006020820190508181036000830152612c8681612c4a565b9050919050565b7f4552433732313a20617070726f766520746f2063616c6c657200000000000000600082015250565b6000612cc3601983611ff9565b9150612cce82612c8d565b602082019050919050565b60006020820190508181036000830152612cf281612cb6565b9050919050565b7f4552433732313a207472616e7366657220746f206e6f6e20455243373231526560008201527f63656976657220696d706c656d656e7465720000000000000000000000000000602082015250565b6000612d55603283611ff9565b9150612d6082612cf9565b604082019050919050565b60006020820190508181036000830152612d8481612d48565b9050919050565b6000612d96826120a9565b91507fffffffffffffffffffffffffffffffffffffffffffffffffffffffffffffffff821415612dc957612dc8612b68565b5b600182019050919050565b7f4e487b7100000000000000000000000000000000000000000000000000000000600052601260045260246000fd5b6000612e0e826120a9565b9150612e19836120a9565b925082612e2957612e28612dd4565b5b828204905092915050565b6000612e3f826120a9565b9150612e4a836120a9565b925082612e5a57612e59612dd4565b5b828206905092915050565b7f4e487b7100000000000000000000000000000000000000000000000000000000600052603260045260246000fd5b600081519050919050565b600082825260208201905092915050565b6000612ebb82612e94565b612ec58185612e9f565b9350612ed581856020860161200a565b612ede8161203d565b840191505092915050565b6000608082019050612efe600083018761213e565b612f0b602083018661213e565b612f186040830185612267565b8181036060830152612f2a8184612eb0565b905095945050505050565b600081519050612f4481611f5f565b92915050565b600060208284031215612f6057612f5f611f29565b5b6000612f6e84828501612f35565b91505092915050565b7f4552433732313a206d696e7420746f20746865207a65726f2061646472657373600082015250565b6000612fad602083611ff9565b9150612fb882612f77565b602082019050919050565b60006020820190508181036000830152612fdc81612fa0565b9050919050565b7f4552433732313a20746f6b656e20616c7265616479206d696e74656400000000600082015250565b6000613019601c83611ff9565b915061302482612fe3565b602082019050919050565b600060208201905081810360008301526130488161300c565b905091905056fea2646970667358221220783fb2ebd49631e0328804236488b2b72b1fab3a69ea8493ac6ddd96e1d8b75464736f6c63430008090033",
  "devdoc": {
    "kind": "dev",
    "methods": {
      "approve(address,uint256)": {
        "details": "See {IERC721-approve}."
      },
      "balanceOf(address)": {
        "details": "See {IERC721-balanceOf}."
      },
      "getApproved(uint256)": {
        "details": "See {IERC721-getApproved}."
      },
      "isApprovedForAll(address,address)": {
        "details": "See {IERC721-isApprovedForAll}."
      },
      "name()": {
        "details": "See {IERC721Metadata-name}."
      },
      "owner()": {
        "details": "Returns the address of the current owner."
      },
      "ownerOf(uint256)": {
        "details": "See {IERC721-ownerOf}."
      },
      "renounceOwnership()": {
        "details": "Leaves the contract without owner. It will not be possible to call `onlyOwner` functions anymore. Can only be called by the current owner. NOTE: Renouncing ownership will leave the contract without an owner, thereby removing any functionality that is only available to the owner."
      },
      "safeTransferFrom(address,address,uint256)": {
        "details": "See {IERC721-safeTransferFrom}."
      },
      "safeTransferFrom(address,address,uint256,bytes)": {
        "details": "See {IERC721-safeTransferFrom}."
      },
      "setApprovalForAll(address,bool)": {
        "details": "See {IERC721-setApprovalForAll}."
      },
      "supportsInterface(bytes4)": {
        "details": "See {IERC165-supportsInterface}."
      },
      "symbol()": {
        "details": "See {IERC721Metadata-symbol}."
      },
      "tokenURI(uint256)": {
        "details": "See {IERC721Metadata-tokenURI}."
      },
      "transferFrom(address,address,uint256)": {
        "details": "See {IERC721-transferFrom}."
      },
      "transferOwnership(address)": {
        "details": "Transfers ownership of the contract to a new account (`newOwner`). Can only be called by the current owner."
      }
    },
    "version": 1
  },
  "userdoc": {
    "kind": "user",
    "methods": {},
    "version": 1
  },
  "storageLayout": {
    "storage": [
      {
        "astId": 138,
        "contract": "contracts/RoomTiles.sol:RoomTiles",
        "label": "_name",
        "offset": 0,
        "slot": "0",
        "type": "t_string_storage"
      },
      {
        "astId": 140,
        "contract": "contracts/RoomTiles.sol:RoomTiles",
        "label": "_symbol",
        "offset": 0,
        "slot": "1",
        "type": "t_string_storage"
      },
      {
        "astId": 144,
        "contract": "contracts/RoomTiles.sol:RoomTiles",
        "label": "_owners",
        "offset": 0,
        "slot": "2",
        "type": "t_mapping(t_uint256,t_address)"
      },
      {
        "astId": 148,
        "contract": "contracts/RoomTiles.sol:RoomTiles",
        "label": "_balances",
        "offset": 0,
        "slot": "3",
        "type": "t_mapping(t_address,t_uint256)"
      },
      {
        "astId": 152,
        "contract": "contracts/RoomTiles.sol:RoomTiles",
        "label": "_tokenApprovals",
        "offset": 0,
        "slot": "4",
        "type": "t_mapping(t_uint256,t_address)"
      },
      {
        "astId": 158,
        "contract": "contracts/RoomTiles.sol:RoomTiles",
        "label": "_operatorApprovals",
        "offset": 0,
        "slot": "5",
        "type": "t_mapping(t_address,t_mapping(t_address,t_bool))"
      },
      {
        "astId": 7,
        "contract": "contracts/RoomTiles.sol:RoomTiles",
        "label": "_owner",
        "offset": 0,
        "slot": "6",
        "type": "t_address"
      },
      {
        "astId": 1940,
        "contract": "contracts/RoomTiles.sol:RoomTiles",
        "label": "mintCost",
        "offset": 0,
        "slot": "7",
        "type": "t_uint256"
      },
      {
        "astId": 1943,
        "contract": "contracts/RoomTiles.sol:RoomTiles",
        "label": "mintIsActive",
        "offset": 0,
        "slot": "8",
        "type": "t_bool"
      },
      {
        "astId": 1945,
        "contract": "contracts/RoomTiles.sol:RoomTiles",
        "label": "EventContract",
        "offset": 1,
        "slot": "8",
        "type": "t_address"
      },
      {
        "astId": 1975,
        "contract": "contracts/RoomTiles.sol:RoomTiles",
        "label": "rooms",
        "offset": 0,
        "slot": "9",
        "type": "t_array(t_struct(RoomTile)1971_storage)dyn_storage"
      },
      {
        "astId": 1978,
        "contract": "contracts/RoomTiles.sol:RoomTiles",
        "label": "publicRoomTokens",
        "offset": 0,
        "slot": "10",
        "type": "t_array(t_uint256)dyn_storage"
      }
    ],
    "types": {
      "t_address": {
        "encoding": "inplace",
        "label": "address",
        "numberOfBytes": "20"
      },
      "t_array(t_struct(RoomTile)1971_storage)dyn_storage": {
        "base": "t_struct(RoomTile)1971_storage",
        "encoding": "dynamic_array",
        "label": "struct RoomTiles.RoomTile[]",
        "numberOfBytes": "32"
      },
      "t_array(t_uint256)dyn_storage": {
        "base": "t_uint256",
        "encoding": "dynamic_array",
        "label": "uint256[]",
        "numberOfBytes": "32"
      },
      "t_bool": {
        "encoding": "inplace",
        "label": "bool",
        "numberOfBytes": "1"
      },
      "t_enum(BCEventType)1817": {
        "encoding": "inplace",
        "label": "enum BCRoomEvents.BCEventType",
        "numberOfBytes": "1"
      },
      "t_mapping(t_address,t_bool)": {
        "encoding": "mapping",
        "key": "t_address",
        "label": "mapping(address => bool)",
        "numberOfBytes": "32",
        "value": "t_bool"
      },
      "t_mapping(t_address,t_mapping(t_address,t_bool))": {
        "encoding": "mapping",
        "key": "t_address",
        "label": "mapping(address => mapping(address => bool))",
        "numberOfBytes": "32",
        "value": "t_mapping(t_address,t_bool)"
      },
      "t_mapping(t_address,t_uint256)": {
        "encoding": "mapping",
        "key": "t_address",
        "label": "mapping(address => uint256)",
        "numberOfBytes": "32",
        "value": "t_uint256"
      },
      "t_mapping(t_uint256,t_address)": {
        "encoding": "mapping",
        "key": "t_uint256",
        "label": "mapping(uint256 => address)",
        "numberOfBytes": "32",
        "value": "t_address"
      },
      "t_string_storage": {
        "encoding": "bytes",
        "label": "string",
        "numberOfBytes": "32"
      },
      "t_struct(RoomTile)1971_storage": {
        "encoding": "inplace",
        "label": "struct RoomTiles.RoomTile",
        "members": [
          {
            "astId": 1947,
            "contract": "contracts/RoomTiles.sol:RoomTiles",
            "label": "name",
            "offset": 0,
            "slot": "0",
            "type": "t_string_storage"
          },
          {
            "astId": 1949,
            "contract": "contracts/RoomTiles.sol:RoomTiles",
            "label": "artLink",
            "offset": 0,
            "slot": "1",
            "type": "t_string_storage"
          },
          {
            "astId": 1952,
            "contract": "contracts/RoomTiles.sol:RoomTiles",
            "label": "eventType",
            "offset": 0,
            "slot": "2",
            "type": "t_enum(BCEventType)1817"
          },
          {
            "astId": 1954,
            "contract": "contracts/RoomTiles.sol:RoomTiles",
            "label": "numDoors",
            "offset": 1,
            "slot": "2",
            "type": "t_uint8"
          },
          {
            "astId": 1956,
            "contract": "contracts/RoomTiles.sol:RoomTiles",
            "label": "totalDoorStrength",
            "offset": 2,
            "slot": "2",
            "type": "t_uint8"
          },
          {
            "astId": 1958,
            "contract": "contracts/RoomTiles.sol:RoomTiles",
            "label": "numItems",
            "offset": 3,
            "slot": "2",
            "type": "t_uint8"
          },
          {
            "astId": 1960,
            "contract": "contracts/RoomTiles.sol:RoomTiles",
            "label": "numData",
            "offset": 4,
            "slot": "2",
            "type": "t_uint8"
          },
          {
            "astId": 1962,
            "contract": "contracts/RoomTiles.sol:RoomTiles",
            "label": "numWindows",
            "offset": 5,
            "slot": "2",
            "type": "t_uint8"
          },
          {
            "astId": 1964,
            "contract": "contracts/RoomTiles.sol:RoomTiles",
            "label": "hasVent",
            "offset": 6,
            "slot": "2",
            "type": "t_bool"
          },
          {
            "astId": 1966,
            "contract": "contracts/RoomTiles.sol:RoomTiles",
            "label": "hasHazard",
            "offset": 7,
            "slot": "2",
            "type": "t_bool"
          },
          {
            "astId": 1968,
            "contract": "contracts/RoomTiles.sol:RoomTiles",
            "label": "signatureDetected",
            "offset": 8,
            "slot": "2",
            "type": "t_bool"
          },
          {
            "astId": 1970,
            "contract": "contracts/RoomTiles.sol:RoomTiles",
            "label": "eventNum",
            "offset": 0,
            "slot": "3",
            "type": "t_uint256"
          }
        ],
        "numberOfBytes": "128"
      },
      "t_uint256": {
        "encoding": "inplace",
        "label": "uint256",
        "numberOfBytes": "32"
      },
      "t_uint8": {
        "encoding": "inplace",
        "label": "uint8",
        "numberOfBytes": "1"
      }
    }
  }
}