{
  "address": "0x034d0C06516D2c2E6ea4Ca1d6d2877722Dc7A685",
  "abi": [
    {
      "inputs": [],
      "stateMutability": "nonpayable",
      "type": "constructor"
    },
    {
      "anonymous": false,
      "inputs": [
        {
          "indexed": true,
          "internalType": "address",
          "name": "owner",
          "type": "address"
        },
        {
          "indexed": true,
          "internalType": "address",
          "name": "approved",
          "type": "address"
        },
        {
          "indexed": true,
          "internalType": "uint256",
          "name": "tokenId",
          "type": "uint256"
        }
      ],
      "name": "Approval",
      "type": "event"
    },
    {
      "anonymous": false,
      "inputs": [
        {
          "indexed": true,
          "internalType": "address",
          "name": "owner",
          "type": "address"
        },
        {
          "indexed": true,
          "internalType": "address",
          "name": "operator",
          "type": "address"
        },
        {
          "indexed": false,
          "internalType": "bool",
          "name": "approved",
          "type": "bool"
        }
      ],
      "name": "ApprovalForAll",
      "type": "event"
    },
    {
      "anonymous": false,
      "inputs": [
        {
          "indexed": true,
          "internalType": "address",
          "name": "previousOwner",
          "type": "address"
        },
        {
          "indexed": true,
          "internalType": "address",
          "name": "newOwner",
          "type": "address"
        }
      ],
      "name": "OwnershipTransferred",
      "type": "event"
    },
    {
      "anonymous": false,
      "inputs": [
        {
          "indexed": true,
          "internalType": "address",
          "name": "from",
          "type": "address"
        },
        {
          "indexed": true,
          "internalType": "address",
          "name": "to",
          "type": "address"
        },
        {
          "indexed": true,
          "internalType": "uint256",
          "name": "tokenId",
          "type": "uint256"
        }
      ],
      "name": "Transfer",
      "type": "event"
    },
    {
      "inputs": [
        {
          "internalType": "uint256",
          "name": "",
          "type": "uint256"
        }
      ],
      "name": "RoomBaseMetadataList",
      "outputs": [
        {
          "internalType": "string",
          "name": "",
          "type": "string"
        }
      ],
      "stateMutability": "view",
      "type": "function"
    },
    {
      "inputs": [
        {
          "internalType": "enum RoomTiles.BCEventType",
          "name": "_eventType",
          "type": "uint8"
        },
        {
          "internalType": "uint256",
          "name": "_eventNum",
          "type": "uint256"
        },
        {
          "internalType": "bool",
          "name": "_hasWindows",
          "type": "bool"
        },
        {
          "internalType": "bool",
          "name": "_hasVent",
          "type": "bool"
        },
        {
          "internalType": "bool",
          "name": "_hasHazard",
          "type": "bool"
        }
      ],
      "name": "addRoomBase",
      "outputs": [],
      "stateMutability": "nonpayable",
      "type": "function"
    },
    {
      "inputs": [
        {
          "internalType": "address",
          "name": "to",
          "type": "address"
        },
        {
          "internalType": "uint256",
          "name": "tokenId",
          "type": "uint256"
        }
      ],
      "name": "approve",
      "outputs": [],
      "stateMutability": "nonpayable",
      "type": "function"
    },
    {
      "inputs": [
        {
          "internalType": "address",
          "name": "owner",
          "type": "address"
        }
      ],
      "name": "balanceOf",
      "outputs": [
        {
          "internalType": "uint256",
          "name": "",
          "type": "uint256"
        }
      ],
      "stateMutability": "view",
      "type": "function"
    },
    {
      "inputs": [
        {
          "internalType": "uint256",
          "name": "tokenId",
          "type": "uint256"
        }
      ],
      "name": "getApproved",
      "outputs": [
        {
          "internalType": "address",
          "name": "",
          "type": "address"
        }
      ],
      "stateMutability": "view",
      "type": "function"
    },
    {
      "inputs": [
        {
          "internalType": "address",
          "name": "owner",
          "type": "address"
        },
        {
          "internalType": "address",
          "name": "operator",
          "type": "address"
        }
      ],
      "name": "isApprovedForAll",
      "outputs": [
        {
          "internalType": "bool",
          "name": "",
          "type": "bool"
        }
      ],
      "stateMutability": "view",
      "type": "function"
    },
    {
      "inputs": [],
      "name": "mintCost",
      "outputs": [
        {
          "internalType": "uint256",
          "name": "",
          "type": "uint256"
        }
      ],
      "stateMutability": "view",
      "type": "function"
    },
    {
      "inputs": [],
      "name": "mintIsActive",
      "outputs": [
        {
          "internalType": "bool",
          "name": "",
          "type": "bool"
        }
      ],
      "stateMutability": "view",
      "type": "function"
    },
    {
      "inputs": [],
      "name": "name",
      "outputs": [
        {
          "internalType": "string",
          "name": "",
          "type": "string"
        }
      ],
      "stateMutability": "view",
      "type": "function"
    },
    {
      "inputs": [],
      "name": "owner",
      "outputs": [
        {
          "internalType": "address",
          "name": "",
          "type": "address"
        }
      ],
      "stateMutability": "view",
      "type": "function"
    },
    {
      "inputs": [
        {
          "internalType": "uint256",
          "name": "tokenId",
          "type": "uint256"
        }
      ],
      "name": "ownerOf",
      "outputs": [
        {
          "internalType": "address",
          "name": "",
          "type": "address"
        }
      ],
      "stateMutability": "view",
      "type": "function"
    },
    {
      "inputs": [
        {
          "internalType": "uint256",
          "name": "",
          "type": "uint256"
        }
      ],
      "name": "publicRoomTokens",
      "outputs": [
        {
          "internalType": "uint256",
          "name": "",
          "type": "uint256"
        }
      ],
      "stateMutability": "view",
      "type": "function"
    },
    {
      "inputs": [],
      "name": "renounceOwnership",
      "outputs": [],
      "stateMutability": "nonpayable",
      "type": "function"
    },
    {
      "inputs": [
        {
          "internalType": "uint256",
          "name": "",
          "type": "uint256"
        }
      ],
      "name": "roomBases",
      "outputs": [
        {
          "internalType": "enum RoomTiles.BCEventType",
          "name": "eventType",
          "type": "uint8"
        },
        {
          "internalType": "uint256",
          "name": "eventNum",
          "type": "uint256"
        },
        {
          "internalType": "bool",
          "name": "hasWindows",
          "type": "bool"
        },
        {
          "internalType": "bool",
          "name": "hasVent",
          "type": "bool"
        },
        {
          "internalType": "bool",
          "name": "hasHazard",
          "type": "bool"
        }
      ],
      "stateMutability": "view",
      "type": "function"
    },
    {
      "inputs": [
        {
          "internalType": "uint256",
          "name": "",
          "type": "uint256"
        }
      ],
      "name": "roomTiles",
      "outputs": [
        {
          "internalType": "uint256",
          "name": "roomBase",
          "type": "uint256"
        },
        {
          "internalType": "uint8",
          "name": "numDoors",
          "type": "uint8"
        },
        {
          "internalType": "uint8",
          "name": "totalDoorStrength",
          "type": "uint8"
        },
        {
          "internalType": "uint8",
          "name": "numItems",
          "type": "uint8"
        },
        {
          "internalType": "uint8",
          "name": "numData",
          "type": "uint8"
        },
        {
          "internalType": "uint8",
          "name": "numWindows",
          "type": "uint8"
        },
        {
          "internalType": "uint16",
          "name": "roomLevel",
          "type": "uint16"
        }
      ],
      "stateMutability": "view",
      "type": "function"
    },
    {
      "inputs": [
        {
          "internalType": "address",
          "name": "from",
          "type": "address"
        },
        {
          "internalType": "address",
          "name": "to",
          "type": "address"
        },
        {
          "internalType": "uint256",
          "name": "tokenId",
          "type": "uint256"
        }
      ],
      "name": "safeTransferFrom",
      "outputs": [],
      "stateMutability": "nonpayable",
      "type": "function"
    },
    {
      "inputs": [
        {
          "internalType": "address",
          "name": "from",
          "type": "address"
        },
        {
          "internalType": "address",
          "name": "to",
          "type": "address"
        },
        {
          "internalType": "uint256",
          "name": "tokenId",
          "type": "uint256"
        },
        {
          "internalType": "bytes",
          "name": "data",
          "type": "bytes"
        }
      ],
      "name": "safeTransferFrom",
      "outputs": [],
      "stateMutability": "nonpayable",
      "type": "function"
    },
    {
      "inputs": [
        {
          "internalType": "address",
          "name": "operator",
          "type": "address"
        },
        {
          "internalType": "bool",
          "name": "approved",
          "type": "bool"
        }
      ],
      "name": "setApprovalForAll",
      "outputs": [],
      "stateMutability": "nonpayable",
      "type": "function"
    },
    {
      "inputs": [
        {
          "internalType": "bytes4",
          "name": "interfaceId",
          "type": "bytes4"
        }
      ],
      "name": "supportsInterface",
      "outputs": [
        {
          "internalType": "bool",
          "name": "",
          "type": "bool"
        }
      ],
      "stateMutability": "view",
      "type": "function"
    },
    {
      "inputs": [],
      "name": "symbol",
      "outputs": [
        {
          "internalType": "string",
          "name": "",
          "type": "string"
        }
      ],
      "stateMutability": "view",
      "type": "function"
    },
    {
      "inputs": [
        {
          "internalType": "uint256",
          "name": "tokenId",
          "type": "uint256"
        }
      ],
      "name": "tokenURI",
      "outputs": [
        {
          "internalType": "string",
          "name": "",
          "type": "string"
        }
      ],
      "stateMutability": "view",
      "type": "function"
    },
    {
      "inputs": [
        {
          "internalType": "address",
          "name": "from",
          "type": "address"
        },
        {
          "internalType": "address",
          "name": "to",
          "type": "address"
        },
        {
          "internalType": "uint256",
          "name": "tokenId",
          "type": "uint256"
        }
      ],
      "name": "transferFrom",
      "outputs": [],
      "stateMutability": "nonpayable",
      "type": "function"
    },
    {
      "inputs": [
        {
          "internalType": "address",
          "name": "newOwner",
          "type": "address"
        }
      ],
      "name": "transferOwnership",
      "outputs": [],
      "stateMutability": "nonpayable",
      "type": "function"
    }
  ],
  "transactionHash": "0xbc12fb24da38a2cbf57ee63281b18cafc178044e2c18484e06533c813e3eaf20",
  "args": [],
  "numDeployments": 2,
  "solcInputHash": "478802561c3ea2fb465414d48ef9ee9b",
  "bytecode": "0x6080604052670de0b6b3a76400006008556000600960006101000a81548160ff0219169083151502179055503480156200003857600080fd5b506040518060400160405280601781526020017f426c61636b20436f6d657420526f6f6d732054696c65730000000000000000008152506040518060400160405280600481526020017f42435254000000000000000000000000000000000000000000000000000000008152508160009080519060200190620000bd92919062000bd6565b508060019080519060200190620000d692919062000bd6565b505050620000f9620000ed6200011f60201b60201c565b6200012760201b60201c565b62000109620001ed60201b60201c565b620001196200052060201b60201c565b6200115a565b600033905090565b6000600760009054906101000a900473ffffffffffffffffffffffffffffffffffffffff16905081600760006101000a81548173ffffffffffffffffffffffffffffffffffffffff021916908373ffffffffffffffffffffffffffffffffffffffff1602179055508173ffffffffffffffffffffffffffffffffffffffff168173ffffffffffffffffffffffffffffffffffffffff167f8be0079c531659141344cd1fd0a4f28419497f9722a3daafe3b4186f6b6457e060405160405180910390a35050565b600b6040518060a001604052806003600481111562000211576200021062000c86565b5b81526020016000815260200160001515815260200160011515815260200160001515815250908060018154018082558091505060019003906000526020600020906003020160009091909190915060008201518160000160006101000a81548160ff021916908360048111156200028d576200028c62000c86565b5b02179055506020820151816001015560408201518160020160006101000a81548160ff02191690831515021790555060608201518160020160016101000a81548160ff02191690831515021790555060808201518160020160026101000a81548160ff0219169083151502179055505050600b6040518060a0016040528060048081111562000321576200032062000c86565b5b81526020016000815260200160001515815260200160011515815260200160001515815250908060018154018082558091505060019003906000526020600020906003020160009091909190915060008201518160000160006101000a81548160ff021916908360048111156200039d576200039c62000c86565b5b02179055506020820151816001015560408201518160020160006101000a81548160ff02191690831515021790555060608201518160020160016101000a81548160ff02191690831515021790555060808201518160020160026101000a81548160ff0219169083151502179055505050600b6040518060a0016040528060048081111562000431576200043062000c86565b5b81526020016001815260200160001515815260200160001515815260200160011515815250908060018154018082558091505060019003906000526020600020906003020160009091909190915060008201518160000160006101000a81548160ff02191690836004811115620004ad57620004ac62000c86565b5b02179055506020820151816001015560408201518160020160006101000a81548160ff02191690831515021790555060608201518160020160016101000a81548160ff02191690831515021790555060808201518160020160026101000a81548160ff0219169083151502179055505050565b6200053d336000600380600360008060016200057b60201b60201c565b6200055c3360016003600260006001600060016200057b60201b60201c565b62000579336002806002600080600060016200057b60201b60201c565b565b600c6040518060e001604052808981526020018860ff1681526020018760ff1681526020018660ff1681526020018560ff1681526020018460ff1681526020018361ffff1681525090806001815401808255809150506001900390600052602060002090600202016000909190919091506000820151816000015560208201518160010160006101000a81548160ff021916908360ff16021790555060408201518160010160016101000a81548160ff021916908360ff16021790555060608201518160010160026101000a81548160ff021916908360ff16021790555060808201518160010160036101000a81548160ff021916908360ff16021790555060a08201518160010160046101000a81548160ff021916908360ff16021790555060c08201518160010160056101000a81548161ffff021916908361ffff160217905550505060006001600c80549050620006d6919062000cee565b9050620006ea8982620006f560201b60201c565b505050505050505050565b620007178282604051806020016040528060008152506200071b60201b60201c565b5050565b6200072d83836200078960201b60201c565b6200074260008484846200098360201b60201c565b62000784576040517f08c379a00000000000000000000000000000000000000000000000000000000081526004016200077b9062000db0565b60405180910390fd5b505050565b600073ffffffffffffffffffffffffffffffffffffffff168273ffffffffffffffffffffffffffffffffffffffff161415620007fc576040517f08c379a0000000000000000000000000000000000000000000000000000000008152600401620007f39062000e22565b60405180910390fd5b6200080d8162000b3d60201b60201c565b1562000850576040517f08c379a0000000000000000000000000000000000000000000000000000000008152600401620008479062000e94565b60405180910390fd5b620008646000838362000ba960201b60201c565b6001600360008473ffffffffffffffffffffffffffffffffffffffff1673ffffffffffffffffffffffffffffffffffffffff1681526020019081526020016000206000828254620008b6919062000eb6565b92505081905550816002600083815260200190815260200160002060006101000a81548173ffffffffffffffffffffffffffffffffffffffff021916908373ffffffffffffffffffffffffffffffffffffffff160217905550808273ffffffffffffffffffffffffffffffffffffffff16600073ffffffffffffffffffffffffffffffffffffffff167fddf252ad1be2c89b69c2b068fc378daa952ba7f163c4a11628f55a4df523b3ef60405160405180910390a46200097f6000838362000bae60201b60201c565b5050565b6000620009b18473ffffffffffffffffffffffffffffffffffffffff1662000bb360201b62000fe81760201c565b1562000b30578373ffffffffffffffffffffffffffffffffffffffff1663150b7a02620009e36200011f60201b60201c565b8786866040518563ffffffff1660e01b815260040162000a0794939291906200100d565b602060405180830381600087803b15801562000a2257600080fd5b505af192505050801562000a5657506040513d601f19601f8201168201806040525081019062000a539190620010c3565b60015b62000adf573d806000811462000a89576040519150601f19603f3d011682016040523d82523d6000602084013e62000a8e565b606091505b5060008151141562000ad7576040517f08c379a000000000000000000000000000000000000000000000000000000000815260040162000ace9062000db0565b60405180910390fd5b805181602001fd5b63150b7a0260e01b7bffffffffffffffffffffffffffffffffffffffffffffffffffffffff1916817bffffffffffffffffffffffffffffffffffffffffffffffffffffffff19161491505062000b35565b600190505b949350505050565b60008073ffffffffffffffffffffffffffffffffffffffff166002600084815260200190815260200160002060009054906101000a900473ffffffffffffffffffffffffffffffffffffffff1673ffffffffffffffffffffffffffffffffffffffff1614159050919050565b505050565b505050565b6000808273ffffffffffffffffffffffffffffffffffffffff163b119050919050565b82805462000be49062001124565b90600052602060002090601f01602090048101928262000c08576000855562000c54565b82601f1062000c2357805160ff191683800117855562000c54565b8280016001018555821562000c54579182015b8281111562000c5357825182559160200191906001019062000c36565b5b50905062000c63919062000c67565b5090565b5b8082111562000c8257600081600090555060010162000c68565b5090565b7f4e487b7100000000000000000000000000000000000000000000000000000000600052602160045260246000fd5b6000819050919050565b7f4e487b7100000000000000000000000000000000000000000000000000000000600052601160045260246000fd5b600062000cfb8262000cb5565b915062000d088362000cb5565b92508282101562000d1e5762000d1d62000cbf565b5b828203905092915050565b600082825260208201905092915050565b7f4552433732313a207472616e7366657220746f206e6f6e20455243373231526560008201527f63656976657220696d706c656d656e7465720000000000000000000000000000602082015250565b600062000d9860328362000d29565b915062000da58262000d3a565b604082019050919050565b6000602082019050818103600083015262000dcb8162000d89565b9050919050565b7f4552433732313a206d696e7420746f20746865207a65726f2061646472657373600082015250565b600062000e0a60208362000d29565b915062000e178262000dd2565b602082019050919050565b6000602082019050818103600083015262000e3d8162000dfb565b9050919050565b7f4552433732313a20746f6b656e20616c7265616479206d696e74656400000000600082015250565b600062000e7c601c8362000d29565b915062000e898262000e44565b602082019050919050565b6000602082019050818103600083015262000eaf8162000e6d565b9050919050565b600062000ec38262000cb5565b915062000ed08362000cb5565b9250827fffffffffffffffffffffffffffffffffffffffffffffffffffffffffffffffff0382111562000f085762000f0762000cbf565b5b828201905092915050565b600073ffffffffffffffffffffffffffffffffffffffff82169050919050565b600062000f408262000f13565b9050919050565b62000f528162000f33565b82525050565b62000f638162000cb5565b82525050565b600081519050919050565b600082825260208201905092915050565b60005b8381101562000fa557808201518184015260208101905062000f88565b8381111562000fb5576000848401525b50505050565b6000601f19601f8301169050919050565b600062000fd98262000f69565b62000fe5818562000f74565b935062000ff781856020860162000f85565b620010028162000fbb565b840191505092915050565b600060808201905062001024600083018762000f47565b62001033602083018662000f47565b62001042604083018562000f58565b818103606083015262001056818462000fcc565b905095945050505050565b600080fd5b60007fffffffff0000000000000000000000000000000000000000000000000000000082169050919050565b6200109d8162001066565b8114620010a957600080fd5b50565b600081519050620010bd8162001092565b92915050565b600060208284031215620010dc57620010db62001061565b5b6000620010ec84828501620010ac565b91505092915050565b7f4e487b7100000000000000000000000000000000000000000000000000000000600052602260045260246000fd5b600060028204905060018216806200113d57607f821691505b60208210811415620011545762001153620010f5565b5b50919050565b612cbc806200116a6000396000f3fe608060405234801561001057600080fd5b506004361061014d5760003560e01c8063715018a6116100c3578063b88d4fde1161007c578063b88d4fde146103b4578063bdb4b848146103d0578063c7a1d8e5146103ee578063c87b56dd14610424578063e985e9c514610454578063f2fde38b146104845761014d565b8063715018a6146102ee57806384e79ecd146102f85780638da5cb5b1461032c57806395d89b411461034a578063a22cb46514610368578063af98fe6b146103845761014d565b806342842e0e1161011557806342842e0e14610208578063471a4294146102245780634c4c6ee1146102425780634e2aa9a41461025e5780636352211e1461028e57806370a08231146102be5761014d565b806301ffc9a71461015257806306fdde0314610182578063081812fc146101a0578063095ea7b3146101d057806323b872dd146101ec575b600080fd5b61016c60048036038101906101679190611be3565b6104a0565b6040516101799190611c2b565b60405180910390f35b61018a610582565b6040516101979190611cdf565b60405180910390f35b6101ba60048036038101906101b59190611d37565b610614565b6040516101c79190611da5565b60405180910390f35b6101ea60048036038101906101e59190611dec565b61065a565b005b61020660048036038101906102019190611e2c565b610772565b005b610222600480360381019061021d9190611e2c565b6107d2565b005b61022c6107f2565b6040516102399190611c2b565b60405180910390f35b61025c60048036038101906102579190611ed0565b610805565b005b61027860048036038101906102739190611d37565b61091a565b6040516102859190611f5a565b60405180910390f35b6102a860048036038101906102a39190611d37565b61093e565b6040516102b59190611da5565b60405180910390f35b6102d860048036038101906102d39190611f75565b6109f0565b6040516102e59190611f5a565b60405180910390f35b6102f6610aa8565b005b610312600480360381019061030d9190611d37565b610abc565b604051610323959493929190612019565b60405180910390f35b610334610b36565b6040516103419190611da5565b60405180910390f35b610352610b60565b60405161035f9190611cdf565b60405180910390f35b610382600480360381019061037d919061206c565b610bf2565b005b61039e60048036038101906103999190611d37565b610c08565b6040516103ab9190611cdf565b60405180910390f35b6103ce60048036038101906103c991906121e1565b610cb4565b005b6103d8610d16565b6040516103e59190611f5a565b60405180910390f35b61040860048036038101906104039190611d37565b610d1c565b60405161041b979695949392919061229d565b60405180910390f35b61043e60048036038101906104399190611d37565b610dbd565b60405161044b9190611cdf565b60405180910390f35b61046e6004803603810190610469919061230c565b610ed0565b60405161047b9190611c2b565b60405180910390f35b61049e60048036038101906104999190611f75565b610f64565b005b60007f80ac58cd000000000000000000000000000000000000000000000000000000007bffffffffffffffffffffffffffffffffffffffffffffffffffffffff1916827bffffffffffffffffffffffffffffffffffffffffffffffffffffffff1916148061056b57507f5b5e139f000000000000000000000000000000000000000000000000000000007bffffffffffffffffffffffffffffffffffffffffffffffffffffffff1916827bffffffffffffffffffffffffffffffffffffffffffffffffffffffff1916145b8061057b575061057a8261100b565b5b9050919050565b6060600080546105919061237b565b80601f01602080910402602001604051908101604052809291908181526020018280546105bd9061237b565b801561060a5780601f106105df5761010080835404028352916020019161060a565b820191906000526020600020905b8154815290600101906020018083116105ed57829003601f168201915b5050505050905090565b600061061f82611075565b6004600083815260200190815260200160002060009054906101000a900473ffffffffffffffffffffffffffffffffffffffff169050919050565b60006106658261093e565b90508073ffffffffffffffffffffffffffffffffffffffff168373ffffffffffffffffffffffffffffffffffffffff1614156106d6576040517f08c379a00000000000000000000000000000000000000000000000000000000081526004016106cd9061241f565b60405180910390fd5b8073ffffffffffffffffffffffffffffffffffffffff166106f56110c0565b73ffffffffffffffffffffffffffffffffffffffff16148061072457506107238161071e6110c0565b610ed0565b5b610763576040517f08c379a000000000000000000000000000000000000000000000000000000000815260040161075a906124b1565b60405180910390fd5b61076d83836110c8565b505050565b61078361077d6110c0565b82611181565b6107c2576040517f08c379a00000000000000000000000000000000000000000000000000000000081526004016107b990612543565b60405180910390fd5b6107cd838383611216565b505050565b6107ed83838360405180602001604052806000815250610cb4565b505050565b600960009054906101000a900460ff1681565b61080d61147d565b600b6040518060a0016040528087600481111561082d5761082c611fa2565b5b815260200186815260200185151581526020018415158152602001831515815250908060018154018082558091505060019003906000526020600020906003020160009091909190915060008201518160000160006101000a81548160ff021916908360048111156108a2576108a1611fa2565b5b02179055506020820151816001015560408201518160020160006101000a81548160ff02191690831515021790555060608201518160020160016101000a81548160ff02191690831515021790555060808201518160020160026101000a81548160ff02191690831515021790555050505050505050565b600d818154811061092a57600080fd5b906000526020600020016000915090505481565b6000806002600084815260200190815260200160002060009054906101000a900473ffffffffffffffffffffffffffffffffffffffff169050600073ffffffffffffffffffffffffffffffffffffffff168173ffffffffffffffffffffffffffffffffffffffff1614156109e7576040517f08c379a00000000000000000000000000000000000000000000000000000000081526004016109de906125af565b60405180910390fd5b80915050919050565b60008073ffffffffffffffffffffffffffffffffffffffff168273ffffffffffffffffffffffffffffffffffffffff161415610a61576040517f08c379a0000000000000000000000000000000000000000000000000000000008152600401610a5890612641565b60405180910390fd5b600360008373ffffffffffffffffffffffffffffffffffffffff1673ffffffffffffffffffffffffffffffffffffffff168152602001908152602001600020549050919050565b610ab061147d565b610aba60006114fb565b565b600b8181548110610acc57600080fd5b90600052602060002090600302016000915090508060000160009054906101000a900460ff16908060010154908060020160009054906101000a900460ff16908060020160019054906101000a900460ff16908060020160029054906101000a900460ff16905085565b6000600760009054906101000a900473ffffffffffffffffffffffffffffffffffffffff16905090565b606060018054610b6f9061237b565b80601f0160208091040260200160405190810160405280929190818152602001828054610b9b9061237b565b8015610be85780601f10610bbd57610100808354040283529160200191610be8565b820191906000526020600020905b815481529060010190602001808311610bcb57829003601f168201915b5050505050905090565b610c04610bfd6110c0565b83836115c1565b5050565b600a8181548110610c1857600080fd5b906000526020600020016000915090508054610c339061237b565b80601f0160208091040260200160405190810160405280929190818152602001828054610c5f9061237b565b8015610cac5780601f10610c8157610100808354040283529160200191610cac565b820191906000526020600020905b815481529060010190602001808311610c8f57829003601f168201915b505050505081565b610cc5610cbf6110c0565b83611181565b610d04576040517f08c379a0000000000000000000000000000000000000000000000000000000008152600401610cfb90612543565b60405180910390fd5b610d108484848461172e565b50505050565b60085481565b600c8181548110610d2c57600080fd5b90600052602060002090600202016000915090508060000154908060010160009054906101000a900460ff16908060010160019054906101000a900460ff16908060010160029054906101000a900460ff16908060010160039054906101000a900460ff16908060010160049054906101000a900460ff16908060010160059054906101000a900461ffff16905087565b6060610dc882611075565b6000600660008481526020019081526020016000208054610de89061237b565b80601f0160208091040260200160405190810160405280929190818152602001828054610e149061237b565b8015610e615780601f10610e3657610100808354040283529160200191610e61565b820191906000526020600020905b815481529060010190602001808311610e4457829003601f168201915b505050505090506000610e7261178a565b9050600081511415610e88578192505050610ecb565b600082511115610ebd578082604051602001610ea592919061269d565b60405160208183030381529060405292505050610ecb565b610ec6846117a1565b925050505b919050565b6000600560008473ffffffffffffffffffffffffffffffffffffffff1673ffffffffffffffffffffffffffffffffffffffff16815260200190815260200160002060008373ffffffffffffffffffffffffffffffffffffffff1673ffffffffffffffffffffffffffffffffffffffff16815260200190815260200160002060009054906101000a900460ff16905092915050565b610f6c61147d565b600073ffffffffffffffffffffffffffffffffffffffff168173ffffffffffffffffffffffffffffffffffffffff161415610fdc576040517f08c379a0000000000000000000000000000000000000000000000000000000008152600401610fd390612733565b60405180910390fd5b610fe5816114fb565b50565b6000808273ffffffffffffffffffffffffffffffffffffffff163b119050919050565b60007f01ffc9a7000000000000000000000000000000000000000000000000000000007bffffffffffffffffffffffffffffffffffffffffffffffffffffffff1916827bffffffffffffffffffffffffffffffffffffffffffffffffffffffff1916149050919050565b61107e81611809565b6110bd576040517f08c379a00000000000000000000000000000000000000000000000000000000081526004016110b4906125af565b60405180910390fd5b50565b600033905090565b816004600083815260200190815260200160002060006101000a81548173ffffffffffffffffffffffffffffffffffffffff021916908373ffffffffffffffffffffffffffffffffffffffff160217905550808273ffffffffffffffffffffffffffffffffffffffff1661113b8361093e565b73ffffffffffffffffffffffffffffffffffffffff167f8c5be1e5ebec7d5bd14f71427d1e84f3dd0314c0f7b2291e5b200ac8c7c3b92560405160405180910390a45050565b60008061118d8361093e565b90508073ffffffffffffffffffffffffffffffffffffffff168473ffffffffffffffffffffffffffffffffffffffff1614806111cf57506111ce8185610ed0565b5b8061120d57508373ffffffffffffffffffffffffffffffffffffffff166111f584610614565b73ffffffffffffffffffffffffffffffffffffffff16145b91505092915050565b8273ffffffffffffffffffffffffffffffffffffffff166112368261093e565b73ffffffffffffffffffffffffffffffffffffffff161461128c576040517f08c379a0000000000000000000000000000000000000000000000000000000008152600401611283906127c5565b60405180910390fd5b600073ffffffffffffffffffffffffffffffffffffffff168273ffffffffffffffffffffffffffffffffffffffff1614156112fc576040517f08c379a00000000000000000000000000000000000000000000000000000000081526004016112f390612857565b60405180910390fd5b611307838383611875565b6113126000826110c8565b6001600360008573ffffffffffffffffffffffffffffffffffffffff1673ffffffffffffffffffffffffffffffffffffffff168152602001908152602001600020600082825461136291906128a6565b925050819055506001600360008473ffffffffffffffffffffffffffffffffffffffff1673ffffffffffffffffffffffffffffffffffffffff16815260200190815260200160002060008282546113b991906128da565b92505081905550816002600083815260200190815260200160002060006101000a81548173ffffffffffffffffffffffffffffffffffffffff021916908373ffffffffffffffffffffffffffffffffffffffff160217905550808273ffffffffffffffffffffffffffffffffffffffff168473ffffffffffffffffffffffffffffffffffffffff167fddf252ad1be2c89b69c2b068fc378daa952ba7f163c4a11628f55a4df523b3ef60405160405180910390a461147883838361187a565b505050565b6114856110c0565b73ffffffffffffffffffffffffffffffffffffffff166114a3610b36565b73ffffffffffffffffffffffffffffffffffffffff16146114f9576040517f08c379a00000000000000000000000000000000000000000000000000000000081526004016114f09061297c565b60405180910390fd5b565b6000600760009054906101000a900473ffffffffffffffffffffffffffffffffffffffff16905081600760006101000a81548173ffffffffffffffffffffffffffffffffffffffff021916908373ffffffffffffffffffffffffffffffffffffffff1602179055508173ffffffffffffffffffffffffffffffffffffffff168173ffffffffffffffffffffffffffffffffffffffff167f8be0079c531659141344cd1fd0a4f28419497f9722a3daafe3b4186f6b6457e060405160405180910390a35050565b8173ffffffffffffffffffffffffffffffffffffffff168373ffffffffffffffffffffffffffffffffffffffff161415611630576040517f08c379a0000000000000000000000000000000000000000000000000000000008152600401611627906129e8565b60405180910390fd5b80600560008573ffffffffffffffffffffffffffffffffffffffff1673ffffffffffffffffffffffffffffffffffffffff16815260200190815260200160002060008473ffffffffffffffffffffffffffffffffffffffff1673ffffffffffffffffffffffffffffffffffffffff16815260200190815260200160002060006101000a81548160ff0219169083151502179055508173ffffffffffffffffffffffffffffffffffffffff168373ffffffffffffffffffffffffffffffffffffffff167f17307eab39ab6107e8899845ad3d59bd9653f200f220920489ca2b5937696c31836040516117219190611c2b565b60405180910390a3505050565b611739848484611216565b6117458484848461187f565b611784576040517f08c379a000000000000000000000000000000000000000000000000000000000815260040161177b90612a7a565b60405180910390fd5b50505050565b606060405180602001604052806000815250905090565b60606117ac82611075565b60006117b661178a565b905060008151116117d65760405180602001604052806000815250611801565b806117e084611a16565b6040516020016117f192919061269d565b6040516020818303038152906040525b915050919050565b60008073ffffffffffffffffffffffffffffffffffffffff166002600084815260200190815260200160002060009054906101000a900473ffffffffffffffffffffffffffffffffffffffff1673ffffffffffffffffffffffffffffffffffffffff1614159050919050565b505050565b505050565b60006118a08473ffffffffffffffffffffffffffffffffffffffff16610fe8565b15611a09578373ffffffffffffffffffffffffffffffffffffffff1663150b7a026118c96110c0565b8786866040518563ffffffff1660e01b81526004016118eb9493929190612aef565b602060405180830381600087803b15801561190557600080fd5b505af192505050801561193657506040513d601f19601f820116820180604052508101906119339190612b50565b60015b6119b9573d8060008114611966576040519150601f19603f3d011682016040523d82523d6000602084013e61196b565b606091505b506000815114156119b1576040517f08c379a00000000000000000000000000000000000000000000000000000000081526004016119a890612a7a565b60405180910390fd5b805181602001fd5b63150b7a0260e01b7bffffffffffffffffffffffffffffffffffffffffffffffffffffffff1916817bffffffffffffffffffffffffffffffffffffffffffffffffffffffff191614915050611a0e565b600190505b949350505050565b60606000821415611a5e576040518060400160405280600181526020017f30000000000000000000000000000000000000000000000000000000000000008152509050611b72565b600082905060005b60008214611a90578080611a7990612b7d565b915050600a82611a899190612bf5565b9150611a66565b60008167ffffffffffffffff811115611aac57611aab6120b6565b5b6040519080825280601f01601f191660200182016040528015611ade5781602001600182028036833780820191505090505b5090505b60008514611b6b57600182611af791906128a6565b9150600a85611b069190612c26565b6030611b1291906128da565b60f81b818381518110611b2857611b27612c57565b5b60200101907effffffffffffffffffffffffffffffffffffffffffffffffffffffffffffff1916908160001a905350600a85611b649190612bf5565b9450611ae2565b8093505050505b919050565b6000604051905090565b600080fd5b600080fd5b60007fffffffff0000000000000000000000000000000000000000000000000000000082169050919050565b611bc081611b8b565b8114611bcb57600080fd5b50565b600081359050611bdd81611bb7565b92915050565b600060208284031215611bf957611bf8611b81565b5b6000611c0784828501611bce565b91505092915050565b60008115159050919050565b611c2581611c10565b82525050565b6000602082019050611c406000830184611c1c565b92915050565b600081519050919050565b600082825260208201905092915050565b60005b83811015611c80578082015181840152602081019050611c65565b83811115611c8f576000848401525b50505050565b6000601f19601f8301169050919050565b6000611cb182611c46565b611cbb8185611c51565b9350611ccb818560208601611c62565b611cd481611c95565b840191505092915050565b60006020820190508181036000830152611cf98184611ca6565b905092915050565b6000819050919050565b611d1481611d01565b8114611d1f57600080fd5b50565b600081359050611d3181611d0b565b92915050565b600060208284031215611d4d57611d4c611b81565b5b6000611d5b84828501611d22565b91505092915050565b600073ffffffffffffffffffffffffffffffffffffffff82169050919050565b6000611d8f82611d64565b9050919050565b611d9f81611d84565b82525050565b6000602082019050611dba6000830184611d96565b92915050565b611dc981611d84565b8114611dd457600080fd5b50565b600081359050611de681611dc0565b92915050565b60008060408385031215611e0357611e02611b81565b5b6000611e1185828601611dd7565b9250506020611e2285828601611d22565b9150509250929050565b600080600060608486031215611e4557611e44611b81565b5b6000611e5386828701611dd7565b9350506020611e6486828701611dd7565b9250506040611e7586828701611d22565b9150509250925092565b60058110611e8c57600080fd5b50565b600081359050611e9e81611e7f565b92915050565b611ead81611c10565b8114611eb857600080fd5b50565b600081359050611eca81611ea4565b92915050565b600080600080600060a08688031215611eec57611eeb611b81565b5b6000611efa88828901611e8f565b9550506020611f0b88828901611d22565b9450506040611f1c88828901611ebb565b9350506060611f2d88828901611ebb565b9250506080611f3e88828901611ebb565b9150509295509295909350565b611f5481611d01565b82525050565b6000602082019050611f6f6000830184611f4b565b92915050565b600060208284031215611f8b57611f8a611b81565b5b6000611f9984828501611dd7565b91505092915050565b7f4e487b7100000000000000000000000000000000000000000000000000000000600052602160045260246000fd5b60058110611fe257611fe1611fa2565b5b50565b6000819050611ff382611fd1565b919050565b600061200382611fe5565b9050919050565b61201381611ff8565b82525050565b600060a08201905061202e600083018861200a565b61203b6020830187611f4b565b6120486040830186611c1c565b6120556060830185611c1c565b6120626080830184611c1c565b9695505050505050565b6000806040838503121561208357612082611b81565b5b600061209185828601611dd7565b92505060206120a285828601611ebb565b9150509250929050565b600080fd5b600080fd5b7f4e487b7100000000000000000000000000000000000000000000000000000000600052604160045260246000fd5b6120ee82611c95565b810181811067ffffffffffffffff8211171561210d5761210c6120b6565b5b80604052505050565b6000612120611b77565b905061212c82826120e5565b919050565b600067ffffffffffffffff82111561214c5761214b6120b6565b5b61215582611c95565b9050602081019050919050565b82818337600083830152505050565b600061218461217f84612131565b612116565b9050828152602081018484840111156121a05761219f6120b1565b5b6121ab848285612162565b509392505050565b600082601f8301126121c8576121c76120ac565b5b81356121d8848260208601612171565b91505092915050565b600080600080608085870312156121fb576121fa611b81565b5b600061220987828801611dd7565b945050602061221a87828801611dd7565b935050604061222b87828801611d22565b925050606085013567ffffffffffffffff81111561224c5761224b611b86565b5b612258878288016121b3565b91505092959194509250565b600060ff82169050919050565b61227a81612264565b82525050565b600061ffff82169050919050565b61229781612280565b82525050565b600060e0820190506122b2600083018a611f4b565b6122bf6020830189612271565b6122cc6040830188612271565b6122d96060830187612271565b6122e66080830186612271565b6122f360a0830185612271565b61230060c083018461228e565b98975050505050505050565b6000806040838503121561232357612322611b81565b5b600061233185828601611dd7565b925050602061234285828601611dd7565b9150509250929050565b7f4e487b7100000000000000000000000000000000000000000000000000000000600052602260045260246000fd5b6000600282049050600182168061239357607f821691505b602082108114156123a7576123a661234c565b5b50919050565b7f4552433732313a20617070726f76616c20746f2063757272656e74206f776e6560008201527f7200000000000000000000000000000000000000000000000000000000000000602082015250565b6000612409602183611c51565b9150612414826123ad565b604082019050919050565b60006020820190508181036000830152612438816123fc565b9050919050565b7f4552433732313a20617070726f76652063616c6c6572206973206e6f7420746f60008201527f6b656e206f776e6572206e6f7220617070726f76656420666f7220616c6c0000602082015250565b600061249b603e83611c51565b91506124a68261243f565b604082019050919050565b600060208201905081810360008301526124ca8161248e565b9050919050565b7f4552433732313a2063616c6c6572206973206e6f7420746f6b656e206f776e6560008201527f72206e6f7220617070726f766564000000000000000000000000000000000000602082015250565b600061252d602e83611c51565b9150612538826124d1565b604082019050919050565b6000602082019050818103600083015261255c81612520565b9050919050565b7f4552433732313a20696e76616c696420746f6b656e2049440000000000000000600082015250565b6000612599601883611c51565b91506125a482612563565b602082019050919050565b600060208201905081810360008301526125c88161258c565b9050919050565b7f4552433732313a2061646472657373207a65726f206973206e6f74206120766160008201527f6c6964206f776e65720000000000000000000000000000000000000000000000602082015250565b600061262b602983611c51565b9150612636826125cf565b604082019050919050565b6000602082019050818103600083015261265a8161261e565b9050919050565b600081905092915050565b600061267782611c46565b6126818185612661565b9350612691818560208601611c62565b80840191505092915050565b60006126a9828561266c565b91506126b5828461266c565b91508190509392505050565b7f4f776e61626c653a206e6577206f776e657220697320746865207a65726f206160008201527f6464726573730000000000000000000000000000000000000000000000000000602082015250565b600061271d602683611c51565b9150612728826126c1565b604082019050919050565b6000602082019050818103600083015261274c81612710565b9050919050565b7f4552433732313a207472616e736665722066726f6d20696e636f72726563742060008201527f6f776e6572000000000000000000000000000000000000000000000000000000602082015250565b60006127af602583611c51565b91506127ba82612753565b604082019050919050565b600060208201905081810360008301526127de816127a2565b9050919050565b7f4552433732313a207472616e7366657220746f20746865207a65726f2061646460008201527f7265737300000000000000000000000000000000000000000000000000000000602082015250565b6000612841602483611c51565b915061284c826127e5565b604082019050919050565b6000602082019050818103600083015261287081612834565b9050919050565b7f4e487b7100000000000000000000000000000000000000000000000000000000600052601160045260246000fd5b60006128b182611d01565b91506128bc83611d01565b9250828210156128cf576128ce612877565b5b828203905092915050565b60006128e582611d01565b91506128f083611d01565b9250827fffffffffffffffffffffffffffffffffffffffffffffffffffffffffffffffff0382111561292557612924612877565b5b828201905092915050565b7f4f776e61626c653a2063616c6c6572206973206e6f7420746865206f776e6572600082015250565b6000612966602083611c51565b915061297182612930565b602082019050919050565b6000602082019050818103600083015261299581612959565b9050919050565b7f4552433732313a20617070726f766520746f2063616c6c657200000000000000600082015250565b60006129d2601983611c51565b91506129dd8261299c565b602082019050919050565b60006020820190508181036000830152612a01816129c5565b9050919050565b7f4552433732313a207472616e7366657220746f206e6f6e20455243373231526560008201527f63656976657220696d706c656d656e7465720000000000000000000000000000602082015250565b6000612a64603283611c51565b9150612a6f82612a08565b604082019050919050565b60006020820190508181036000830152612a9381612a57565b9050919050565b600081519050919050565b600082825260208201905092915050565b6000612ac182612a9a565b612acb8185612aa5565b9350612adb818560208601611c62565b612ae481611c95565b840191505092915050565b6000608082019050612b046000830187611d96565b612b116020830186611d96565b612b1e6040830185611f4b565b8181036060830152612b308184612ab6565b905095945050505050565b600081519050612b4a81611bb7565b92915050565b600060208284031215612b6657612b65611b81565b5b6000612b7484828501612b3b565b91505092915050565b6000612b8882611d01565b91507fffffffffffffffffffffffffffffffffffffffffffffffffffffffffffffffff821415612bbb57612bba612877565b5b600182019050919050565b7f4e487b7100000000000000000000000000000000000000000000000000000000600052601260045260246000fd5b6000612c0082611d01565b9150612c0b83611d01565b925082612c1b57612c1a612bc6565b5b828204905092915050565b6000612c3182611d01565b9150612c3c83611d01565b925082612c4c57612c4b612bc6565b5b828206905092915050565b7f4e487b7100000000000000000000000000000000000000000000000000000000600052603260045260246000fdfea2646970667358221220c382deb6d34a366273a01a099cdf4f3f3540c5770ee4dc50ceb41c3ed647b64d64736f6c63430008090033",
  "devdoc": {
    "kind": "dev",
    "methods": {
      "approve(address,uint256)": {
        "details": "See {IERC721-approve}."
      },
      "balanceOf(address)": {
        "details": "See {IERC721-balanceOf}."
      },
      "getApproved(uint256)": {
        "details": "See {IERC721-getApproved}."
      },
      "isApprovedForAll(address,address)": {
        "details": "See {IERC721-isApprovedForAll}."
      },
      "name()": {
        "details": "See {IERC721Metadata-name}."
      },
      "owner()": {
        "details": "Returns the address of the current owner."
      },
      "ownerOf(uint256)": {
        "details": "See {IERC721-ownerOf}."
      },
      "renounceOwnership()": {
        "details": "Leaves the contract without owner. It will not be possible to call `onlyOwner` functions anymore. Can only be called by the current owner. NOTE: Renouncing ownership will leave the contract without an owner, thereby removing any functionality that is only available to the owner."
      },
      "safeTransferFrom(address,address,uint256)": {
        "details": "See {IERC721-safeTransferFrom}."
      },
      "safeTransferFrom(address,address,uint256,bytes)": {
        "details": "See {IERC721-safeTransferFrom}."
      },
      "setApprovalForAll(address,bool)": {
        "details": "See {IERC721-setApprovalForAll}."
      },
      "supportsInterface(bytes4)": {
        "details": "See {IERC165-supportsInterface}."
      },
      "symbol()": {
        "details": "See {IERC721Metadata-symbol}."
      },
      "tokenURI(uint256)": {
        "details": "See {IERC721Metadata-tokenURI}."
      },
      "transferFrom(address,address,uint256)": {
        "details": "See {IERC721-transferFrom}."
      },
      "transferOwnership(address)": {
        "details": "Transfers ownership of the contract to a new account (`newOwner`). Can only be called by the current owner."
      }
    },
    "version": 1
  },
  "userdoc": {
    "kind": "user",
    "methods": {},
    "version": 1
  },
  "storageLayout": {
    "storage": [
      {
        "astId": 138,
        "contract": "contracts/RoomTiles.sol:RoomTiles",
        "label": "_name",
        "offset": 0,
        "slot": "0",
        "type": "t_string_storage"
      },
      {
        "astId": 140,
        "contract": "contracts/RoomTiles.sol:RoomTiles",
        "label": "_symbol",
        "offset": 0,
        "slot": "1",
        "type": "t_string_storage"
      },
      {
        "astId": 144,
        "contract": "contracts/RoomTiles.sol:RoomTiles",
        "label": "_owners",
        "offset": 0,
        "slot": "2",
        "type": "t_mapping(t_uint256,t_address)"
      },
      {
        "astId": 148,
        "contract": "contracts/RoomTiles.sol:RoomTiles",
        "label": "_balances",
        "offset": 0,
        "slot": "3",
        "type": "t_mapping(t_address,t_uint256)"
      },
      {
        "astId": 152,
        "contract": "contracts/RoomTiles.sol:RoomTiles",
        "label": "_tokenApprovals",
        "offset": 0,
        "slot": "4",
        "type": "t_mapping(t_uint256,t_address)"
      },
      {
        "astId": 158,
        "contract": "contracts/RoomTiles.sol:RoomTiles",
        "label": "_operatorApprovals",
        "offset": 0,
        "slot": "5",
        "type": "t_mapping(t_address,t_mapping(t_address,t_bool))"
      },
      {
        "astId": 1126,
        "contract": "contracts/RoomTiles.sol:RoomTiles",
        "label": "_tokenURIs",
        "offset": 0,
        "slot": "6",
        "type": "t_mapping(t_uint256,t_string_storage)"
      },
      {
        "astId": 7,
        "contract": "contracts/RoomTiles.sol:RoomTiles",
        "label": "_owner",
        "offset": 0,
        "slot": "7",
        "type": "t_address"
      },
      {
        "astId": 1996,
        "contract": "contracts/RoomTiles.sol:RoomTiles",
        "label": "mintCost",
        "offset": 0,
        "slot": "8",
        "type": "t_uint256"
      },
      {
        "astId": 1999,
        "contract": "contracts/RoomTiles.sol:RoomTiles",
        "label": "mintIsActive",
        "offset": 0,
        "slot": "9",
        "type": "t_bool"
      },
      {
        "astId": 2002,
        "contract": "contracts/RoomTiles.sol:RoomTiles",
        "label": "RoomBaseMetadataList",
        "offset": 0,
        "slot": "10",
        "type": "t_array(t_string_storage)dyn_storage"
      },
      {
        "astId": 2024,
        "contract": "contracts/RoomTiles.sol:RoomTiles",
        "label": "roomBases",
        "offset": 0,
        "slot": "11",
        "type": "t_array(t_struct(RoomBase)2020_storage)dyn_storage"
      },
      {
        "astId": 2043,
        "contract": "contracts/RoomTiles.sol:RoomTiles",
        "label": "roomTiles",
        "offset": 0,
        "slot": "12",
        "type": "t_array(t_struct(RoomTile)2039_storage)dyn_storage"
      },
      {
        "astId": 2046,
        "contract": "contracts/RoomTiles.sol:RoomTiles",
        "label": "publicRoomTokens",
        "offset": 0,
        "slot": "13",
        "type": "t_array(t_uint256)dyn_storage"
      }
    ],
    "types": {
      "t_address": {
        "encoding": "inplace",
        "label": "address",
        "numberOfBytes": "20"
      },
      "t_array(t_string_storage)dyn_storage": {
        "base": "t_string_storage",
        "encoding": "dynamic_array",
        "label": "string[]",
        "numberOfBytes": "32"
      },
      "t_array(t_struct(RoomBase)2020_storage)dyn_storage": {
        "base": "t_struct(RoomBase)2020_storage",
        "encoding": "dynamic_array",
        "label": "struct RoomTiles.RoomBase[]",
        "numberOfBytes": "32"
      },
      "t_array(t_struct(RoomTile)2039_storage)dyn_storage": {
        "base": "t_struct(RoomTile)2039_storage",
        "encoding": "dynamic_array",
        "label": "struct RoomTiles.RoomTile[]",
        "numberOfBytes": "32"
      },
      "t_array(t_uint256)dyn_storage": {
        "base": "t_uint256",
        "encoding": "dynamic_array",
        "label": "uint256[]",
        "numberOfBytes": "32"
      },
      "t_bool": {
        "encoding": "inplace",
        "label": "bool",
        "numberOfBytes": "1"
      },
      "t_enum(BCEventType)2008": {
        "encoding": "inplace",
        "label": "enum RoomTiles.BCEventType",
        "numberOfBytes": "1"
      },
      "t_mapping(t_address,t_bool)": {
        "encoding": "mapping",
        "key": "t_address",
        "label": "mapping(address => bool)",
        "numberOfBytes": "32",
        "value": "t_bool"
      },
      "t_mapping(t_address,t_mapping(t_address,t_bool))": {
        "encoding": "mapping",
        "key": "t_address",
        "label": "mapping(address => mapping(address => bool))",
        "numberOfBytes": "32",
        "value": "t_mapping(t_address,t_bool)"
      },
      "t_mapping(t_address,t_uint256)": {
        "encoding": "mapping",
        "key": "t_address",
        "label": "mapping(address => uint256)",
        "numberOfBytes": "32",
        "value": "t_uint256"
      },
      "t_mapping(t_uint256,t_address)": {
        "encoding": "mapping",
        "key": "t_uint256",
        "label": "mapping(uint256 => address)",
        "numberOfBytes": "32",
        "value": "t_address"
      },
      "t_mapping(t_uint256,t_string_storage)": {
        "encoding": "mapping",
        "key": "t_uint256",
        "label": "mapping(uint256 => string)",
        "numberOfBytes": "32",
        "value": "t_string_storage"
      },
      "t_string_storage": {
        "encoding": "bytes",
        "label": "string",
        "numberOfBytes": "32"
      },
      "t_struct(RoomBase)2020_storage": {
        "encoding": "inplace",
        "label": "struct RoomTiles.RoomBase",
        "members": [
          {
            "astId": 2011,
            "contract": "contracts/RoomTiles.sol:RoomTiles",
            "label": "eventType",
            "offset": 0,
            "slot": "0",
            "type": "t_enum(BCEventType)2008"
          },
          {
            "astId": 2013,
            "contract": "contracts/RoomTiles.sol:RoomTiles",
            "label": "eventNum",
            "offset": 0,
            "slot": "1",
            "type": "t_uint256"
          },
          {
            "astId": 2015,
            "contract": "contracts/RoomTiles.sol:RoomTiles",
            "label": "hasWindows",
            "offset": 0,
            "slot": "2",
            "type": "t_bool"
          },
          {
            "astId": 2017,
            "contract": "contracts/RoomTiles.sol:RoomTiles",
            "label": "hasVent",
            "offset": 1,
            "slot": "2",
            "type": "t_bool"
          },
          {
            "astId": 2019,
            "contract": "contracts/RoomTiles.sol:RoomTiles",
            "label": "hasHazard",
            "offset": 2,
            "slot": "2",
            "type": "t_bool"
          }
        ],
        "numberOfBytes": "96"
      },
      "t_struct(RoomTile)2039_storage": {
        "encoding": "inplace",
        "label": "struct RoomTiles.RoomTile",
        "members": [
          {
            "astId": 2026,
            "contract": "contracts/RoomTiles.sol:RoomTiles",
            "label": "roomBase",
            "offset": 0,
            "slot": "0",
            "type": "t_uint256"
          },
          {
            "astId": 2028,
            "contract": "contracts/RoomTiles.sol:RoomTiles",
            "label": "numDoors",
            "offset": 0,
            "slot": "1",
            "type": "t_uint8"
          },
          {
            "astId": 2030,
            "contract": "contracts/RoomTiles.sol:RoomTiles",
            "label": "totalDoorStrength",
            "offset": 1,
            "slot": "1",
            "type": "t_uint8"
          },
          {
            "astId": 2032,
            "contract": "contracts/RoomTiles.sol:RoomTiles",
            "label": "numItems",
            "offset": 2,
            "slot": "1",
            "type": "t_uint8"
          },
          {
            "astId": 2034,
            "contract": "contracts/RoomTiles.sol:RoomTiles",
            "label": "numData",
            "offset": 3,
            "slot": "1",
            "type": "t_uint8"
          },
          {
            "astId": 2036,
            "contract": "contracts/RoomTiles.sol:RoomTiles",
            "label": "numWindows",
            "offset": 4,
            "slot": "1",
            "type": "t_uint8"
          },
          {
            "astId": 2038,
            "contract": "contracts/RoomTiles.sol:RoomTiles",
            "label": "roomLevel",
            "offset": 5,
            "slot": "1",
            "type": "t_uint16"
          }
        ],
        "numberOfBytes": "64"
      },
      "t_uint16": {
        "encoding": "inplace",
        "label": "uint16",
        "numberOfBytes": "2"
      },
      "t_uint256": {
        "encoding": "inplace",
        "label": "uint256",
        "numberOfBytes": "32"
      },
      "t_uint8": {
        "encoding": "inplace",
        "label": "uint8",
        "numberOfBytes": "1"
      }
    }
  }
}